:020000040000FA
:040000001FD00ED02F
:0400080004EF04F00D
:040018000CEF04F0F5
:10002000A66E05A01200550EA76EAA0EA76EA68298
:100030000000A6B2FED712000A26D8B00B2A120082
:10004000A66AA968AA68A680A83C00EF04F0066A20
:100050001C0E056E0F019394000E006F080E016FC9
:10006000E81E056F000E026F070E036FFF0E186F7C
:10007000EB0E196FFF0E1A6FF80E1B6F070E706EE6
:100080009E0E716E030E726E200E736E6F6A9490E8
:10009000949482908294609E60AEFED70FEE66F0DC
:1000A00065500F0B096EF46EF6E064B02BD010EEC5
:1000B00001F0EECFE6FFF42EFCD70650ECE0010A8B
:1000C000D8A407D0A968AA68A86A040EA9DF82800C
:1000D000FF000650020A05E10B6A0A6A0C900C6ADE
:1000E000DAD70650030A0AE107500A2606E108504B
:1000F0000B2203E10CB001D073D076D00650040A75
:10010000CAE176D00350F86EF00BF36E0250F76E32
:10011000AA6E0150F66EA96E05A605D009500126FB
:10012000E86A02220322300EF36001D008D0F350B7
:10013000300A01E12AD0F350F00AADE132D005A433
:1001400005D0F6503F0B02E1940E6ADF05B2A3D74B
:10015000F650070BA0E1080EF46EEE50F56E6CDF62
:100160000D00F42EFAD7080EF46E0A00ED50F42EAE
:10017000FCD7840E55DF080EF46E0900F550EE181A
:10018000D8A40C80F42EF9D786D7EF50F56E54DF43
:100190000C00C40E45DF0900F550EE18F42EF5D71B
:1001A0007AD7EF50A86E48DF040E3ADFA66AA68021
:1001B000A850EE18D8A40C80A94AAA2AF42EF1D788
:1001C0006AD740B7FED7800E416F080E426F000E0F
:1001D000436F040E446F448164A0449140875BD711
:1001E000010E466F456FEDD7466B010E456FE9D79F
:0A01F000020E466F010E456FE4D7C2
:08080000000021EF0DF01200D1
:0608080027EF5CF0120076
:0608180070EF5CF012001D
:10082000A56519000025020C050100080000000064
:100830000000010D00000000000000000000140096
:0C08400046080000D40145746865720091
:10085000D9CFE6FFE1CFD9FF220EE126DF6A010EF4
:10086000DB6A0001FC6BFD6BF06BF66BF76BF86BF2
:10087000F56BFB6B780EF46F0501F86BD0EC0CF0A8
:10088000010E25D90001EE6FFF0EEE5D12E1E66A62
:10089000010EE66E41EC0CF0E552E5520001EE6B04
:1008A000780EF46FE66E140EE66E41EC0CF0E55235
:1008B000E552DEEC5CF0EBEC51F0C7D884EC52F082
:1008C000030E05D90001EC6FED6BED6FEC6B020EC2
:1008D000FED8146E156AE8500001EC271550ED2380
:1008E000EC51ED110AE0EC1D01E1ED1D06E0FD0EFD
:1008F000EC1913E1FF0EED1910E1FD0EEC6FED693F
:10090000E66EEDC0E6FF020EE66E91EC0CF0E552ED
:10091000E552E552818E819C02D0818C819E040E2D
:10092000D6D80001EF6FE85003E0FF0EEF5D03E162
:100930007F0EEC15EF6FE2EC4AF08282120EDB6A5A
:10094000CBD8DBEC4BF0E552E552000915E0E66A46
:10095000C3D873EC05F0E552E552E5520009F0E02A
:10096000FE0EE66ED950030FA8D80009E9E0010E8B
:10097000F36E120EF3CFDBFF0501F85103E0F86BC5
:1009800030EC45F07DEC53F0120EDB5007E0E668EA
:10099000D950030F92D8000901E182820001F95178
:1009A000D880765402E276CFF9F0F951D8807554A8
:1009B00002E276CFF9F028EC5DF000090BE0A00E22
:1009C000F36E010EDBCFF4FFF350F45CB7E2010EDF
:1009D000DB2AB4D7010EDB50A00834E10001F0514E
:1009E00002E0F06B2FD0EF51E840E840E8401F0BE9
:1009F000E76E140EE7CFDBFFEF51200D150EF3CF9E
:100A0000DBFF82BC02D0500E01D0520EF36E190EE5
:100A1000F3CFDBFF1A0EEDC0DBFFECC014F0EDC02E
:100A200015F00001156A1B0EECC0DBFF030EF36E20
:100A3000180EF3CFDBFFE668D950130F3ED8000144
:100A4000010EF06F010EDB6A79D7D9CFE6FFE1CF57
:100A5000D9FF020EE126DE6ADD6AF26AA66AA56A9D
:100A6000A26A9F6AA36AA06A9D6AF06AF16AA46A90
:100A7000A16A9E6AD08E300ECD6E9F809D8000014F
:100A8000AF0EFE6F3C0EFF6FFFC0CFFFFEC014F035
:100A9000FFC015F01450CE6ECD80020E0501F26F2E
:100AA000F36BD08EF28CF28EE15C02E2E16AE552E9
:100AB000E16EE552E7CFD9FF1200E66E000EDA20B4
:100AC000E66ED6EC44F0E552E552E5521200E66ED1
:100AD00038EC0CF0E5521200D950030FE66E000E10
:100AE000DA20E66E1200D9CFE6FFE1CFD9FF160E6D
:100AF000E126010EDF6E110EDB6AFC0EDB5014E105
:100B0000FD0EDBCFE9FFFE0EDBCFEAFF020EE9268A
:100B1000000EEA22EF50080B02E0030E01D0010E96
:100B2000E76EFC0EE7CFDBFFFC0EDB50030803E1B2
:100B3000010E50EF0BF0FC0EDB5002085CE1FD0EE5
:100B4000DBCFE9FFFE0EDBCFEAFF060EE926000E43
:100B5000EA22EF50030A04E0030A01E049D048D03A
:100B60000001EF51E840E840E8401F0BE76E020E3D
:100B7000E7CFDBFF0001EF51200D030EF3CFDBFFCA
:100B8000030EF36E070EF3CFDBFF0001F9514008AF
:100B900004E30001FA51400803E2080EDB6A02D0C8
:100BA000080EDB6A090EF8C0DBFF0A0EF7C0DBFF98
:100BB0000B0EF9C0DBFF0C0EFAC0DBFF860EF36EE6
:100BC000060EF3CFDBFFE668D950010FE66E000E8C
:100BD000DA20E66ED6EC44F0E552E552E55200012B
:100BE000F86B0001F76B0001F96B0001FA6B00D0A4
:100BF000000E50EF0BF00001F52B0001EEA538D0F0
:100C00000001EF51E840E840E8401F0BE76E020E9C
:100C1000E7CFDBFF0001EF51200D030EF3CFDBFF29
:100C2000020EF36E070EF3CFDBFF080EDB6AFD0E3C
:100C3000DBCFE9FFFE0EDBCFEAFF060EE926000E52
:100C4000EA22090EEFCFDBFF0A0EF5C0DBFF840EB0
:100C5000F36E060EF3CFDBFFE668D950010FE66EA8
:100C6000000EDA20E66ED6EC44F0E552E552E5528D
:100C7000FD0EDBCFE9FFFE0EDBCFEAFF060EE92615
:100C8000000EEA22EF50960A01E1D3D3E70A01E110
:100C9000FBD12F0A01E1EBD1020A01E1D4D14D0AC7
:100CA00001E163D1010A01E1FDD0520A01E181D0E5
:100CB000310A5FE07E0A02E04DEF0BF00001EF51D8
:100CC000E840E840E8401F0BE76E020EE7CFDBFF8D
:100CD0000001EF51200D030EF3CFDBFFB60EF36ED4
:100CE000070EF3CFDBFFECC014F0EDC015F0080EDB
:100CF0000F0B05E0D89015321432E806FBE1FF0E29
:100D00001416000E1516080E14C0DBFFECC014F00C
:100D1000EDC015F00001156AFF0E1416000E151631
:100D2000090E14C0DBFF200EF66E080EF76E0800E9
:100D30000A0EF5CFDBFF220EF66E080EF76E0800E6
:100D40000B0EF5CFDBFF0C0EEEC0DBFF060EF36ED5
:100D5000060EF3CFDBFFE668D950010FE66E000EFA
:100D6000DA20E66ED6EC44F0E552E552E5524EEF5D
:100D70000BF0FD0EDBCFE6FFFE0EDBCFE6FFACECAB
:100D80000BF0E552E552010812E1FD0EDBCFE9FF61
:100D9000FE0EDBCFEAFF090EE926000EEA22EF5035
:100DA000E66EE66A5CEC0BF0E552E552DF6A4EEF68
:100DB0000BF00001F05174E0FD0EDBCFE9FFFE0EF9
:100DC000DBCFEAFF070EE926000EEA22120EEFCF74
:100DD000DBFFFD0EDBCFE9FFFE0EDBCFEAFF080EE7
:100DE000E926000EEA22130EEFCFDBFF120EDB50D6
:100DF000146E156A14C015F0146A130EDB5000014E
:100E00001424EC6F000E1520ED6F120EDBCFE6FF01
:100E1000030EE66E41EC0CF0E552E552130EDBCF0B
:100E2000E6FF020EE66E41EC0CF0E552E5520001E1
:100E3000F06B819E818C82BC32D00001EF51E84082
:100E4000E840E8401F0BE76E020EE7CFDBFF000132
:100E5000EF51200D030EF3CFDBFF520EF36E070EA2
:100E6000F3CFDBFF120EDB50E76E080EE7CFDBFFA0
:100E7000130EDB50E76E090EE7CFDBFF030EF36EB8
:100E8000060EF3CFDBFFE668D950010FE66E000EC9
:100E9000DA20E66ED6EC44F0E552E552E552DF6A20
:100EA0004EEF0BF00001F0515FE00001EF51E84020
:100EB000E840E8401F0BE76E020EE7CFDBFF0001C2
:100EC000EF51200D030EF3CFDBFFEF0EF36E070E95
:100ED000F3CFDBFF200EF66E080EF76E0800080E4B
:100EE000F5CFDBFF210EF66E080EF76E0800090E37
:100EF000F5CFDBFF220EF66E080EF76E08000A0E25
:100F0000F5CFDBFF230EF66E080EF76E08000B0E12
:100F1000F5CFDBFF240EF66E080EF76E08000C0E00
:100F2000F5CFDBFF250EF66E080EF76E08000D0EEE
:100F3000F5CFDBFF260EF66E080EF76E08000E0EDC
:100F4000F5CFDBFF080EF36E060EF3CFDBFFE6688E
:100F5000D950010FE66E000EDA20E66ED6EC44F0B2
:100F6000E552E552E552DF6A99D30001F0516AE09B
:100F70000001EF51E840E840E8401F0BE76E020E29
:100F8000E7CFDBFF0001EF51200D030EF3CFDBFFB6
:100F9000E20EF36E070EF3CFDBFF100EDB6A070ED7
:100FA000F36E100EDBCFF4FFF350F45C39E2100E59
:100FB000DB50F76A460FF66E080EF7220800F55070
:100FC00002E0000E01D0010E146E110EDBCFE7FF20
:100FD0001450E712110EE7CFDBFF110EDB5002E0D9
:100FE000200E09D0100EDB50F76A460FF66E080E81
:100FF000F7220800F550E66ED950010F146EDACFD3
:1010000015F0100EDB50070F0F011424E96E000ECF
:101010001520EA6EE552E750EF6E100EDB2ABFD7BF
:10102000080EF36E060EF3CFDBFFE668D950010F12
:10103000E66E000EDA20E66ED6EC44F0E552E5529C
:10104000E552DF6A2BD3FD0EDBCFE6FFFE0EDBCFD2
:10105000E6FF82DBE552E552010808E1E668FF0E93
:10106000E66E41EC0CF0E552E552FF0017D3FD0EA1
:10107000DBCFE6FFFE0EDBCFE6FF6EDBE552E5528F
:10108000010801E1FF000AD3FD0EDBCFE6FFFE0EF3
:10109000DBCFE6FF61DBE552E552000901E1C8D193
:1010A000FD0EDBCFE9FFFE0EDBCFEAFF090EE926DE
:1010B000000EEA22140EEFCFDBFF780E0001EF15D1
:1010C000E840E840E8401F0BE76E020EE7CFDBFF89
:1010D000070E0001EF15200D030EF3CFDBFF970E77
:1010E000F36E070EF3CFDBFFECC014F0EDC015F08C
:1010F000080E0F0B05E0D89015321432E806FBE11C
:10110000FF0E1416000E1516080E14C0DBFFECC0FF
:1011100014F0EDC015F00001156AFF0E1416000E54
:101120001516090E14C0DBFF140EDB50E76E0A0E15
:10113000E7CFDBFF050EF36E060EF3CFDBFF140ED9
:10114000DB0411E10B0EEEC0DBFFE668D950010FA6
:10115000E66E000EDA20E66ED6EC44F0E552E5527B
:10116000E552DF6A65D1140EDB50020811E10B0E67
:10117000EFC0DBFFE668D950010FE66E000EDA2003
:10118000E66ED6EC44F0E552E552E552DF6A50D106
:10119000140EDB50020822E2070EF36E140EDBCFB2
:1011A000F4FFF350F45C1AE2140EDB50050FFD0F50
:1011B000E66E38EC0CF0E552E76E0B0EE7CFDBFF86
:1011C000E668D950010FE66E000EDA20E66ED6EC26
:1011D00044F0E552E552E552DF6A2AD1140EDB50A5
:1011E000060822E20B0EF36E140EDBCFF4FFF35071
:1011F000F45C1AE2140EDB50090FF90FE66E38ECBE
:101200000CF0E552E76E0B0EE7CFDBFFE668D95036
:10121000010FE66E000EDA20E66ED6EC44F0E552E1
:10122000E552E552DF6A04D1140EDB500A0822E2CF
:10123000110EF36E140EDBCFF4FFF350F45C1AE2E0
:10124000140EDB500D0FF50FE66E38EC0CF0E55286
:10125000E76E0B0EE7CFDBFFE668D950010FE66EB5
:10126000000EDA20E66ED6EC44F0E552E552E55287
:10127000DF6ADED0140EDB50110817E1140EE66EA3
:1012800038EC0CF0E552E76E0B0EE7CFDBFFE668BB
:10129000D950010FE66E000EDA20E66ED6EC44F06F
:1012A000E552E552E552DF6AC3D0140EDB50110857
:1012B00022E21E0EF36E140EDBCFF4FFF350F45C4B
:1012C0001AE2140EDB50150FEE0FE66E38EC0CF040
:1012D000E552E76E0B0EE7CFDBFFE668D950010F52
:1012E000E66E000EDA20E66ED6EC44F0E552E552EA
:1012F000E552DF6A9DD0140EDB501D0818E2200E67
:10130000F36E140EDBCFF4FFF350F45C10E20B0E1F
:10131000DB6AE668D950010FE66E000EDA20E66E51
:10132000D6EC44F0E552E552E552DF6A81D0140E66
:10133000DB501F0821E2240EF36E140EDBCFF4FF06
:10134000F350F45C19E2140EDB50E00FEA6A350F3B
:10135000E96E050EEA220B0EEFCFDBFFE668D950EF
:10136000010FE66E000EDA20E66ED6EC44F0E55290
:10137000E552E552DF6A5CD0140EDB5023081FE211
:10138000250EF36E140EDBCFF4FFF350F45C17E27E
:101390000B0E68C5DBFF5FEC43F0000902E00B0EAB
:1013A000DB8EE668D950010FE66E000EDA20E66E9D
:1013B000D6EC44F0E552E552E552DF6A39D0140E1E
:1013C000DB50240819E2260EF36E140EDBCFF4FF77
:1013D000F350F45C11E20B0EFBC0DBFFE668D95062
:1013E000010FE66E000EDA20E66ED6EC44F0E55210
:1013F000E552E552DF6A1CD0140EDB50250818E2D6
:10140000270EF36E140EDBCFF4FFF350F45C10E202
:101410000B0EFFC5DBFFE668D950010FE66E000E2C
:10142000DA20E66ED6EC44F0E552E552E552DF6A8A
:1014300035D1FD0EDBCFE6FFFE0EDBCFE6FF8CD90C
:10144000E552E552000901E127D1FD0EDBCFE9FFAE
:10145000FE0EDBCFEAFF090EE926000EEA22150E8A
:10146000EFCFDBFF150EDB042BE1FD0EDBCFE9FF39
:10147000FE0EDBCFEAFF0A0EE926000EEA22EFCFCE
:10148000EEF00001EEAF03D08BEC52F018D0EEC0BE
:10149000E6FF010EE66E41EC0CF0E552E55200016C
:1014A000EEA707D00501618DE66AB8EC46F0E5527B
:1014B00006D00501619DE66AD3EC46F0E552B9D04D
:1014C000150EDB50020815E1FD0EDBCFE9FFFE0E25
:1014D000DBCFEAFF0A0EE926000EEA22EFCFEFF09B
:1014E000EFC0E6FF040EE66E41EC0CF0E552E5526B
:1014F000A0D0150EDB5002081EE2070EF36E150E8B
:10150000DBCFF4FFF350F45C16E2FD0EDBCFE9FF16
:10151000FE0EDBCFEAFF0A0EE926000EEA22EF50AC
:10152000E66E150EDB50050FFD0FE66E41EC0CF07C
:10153000E552E5527ED0150EDB5006081EE20B0E7A
:10154000F36E150EDBCFF4FFF350F45C16E2FD0EE4
:10155000DBCFE9FFFE0EDBCFEAFF0A0EE926000E25
:10156000EA22EF50E66E150EDB50090FF90FE66E1A
:1015700041EC0CF0E552E5525CD0150EDB500A0848
:101580001EE2110EF36E150EDBCFF4FFF350F45C88
:1015900016E2FD0EDBCFE9FFFE0EDBCFEAFF0A0EFF
:1015A000E926000EEA22EF50E66E150EDB500D0F15
:1015B000F50FE66E41EC0CF0E552E5523AD0150E0F
:1015C000DB50110815E1FD0EDBCFE9FFFE0EDBCF8E
:1015D000EAFF0A0EE926000EEA22EFCFF4F0F4C08B
:1015E000E6FF140EE66E41EC0CF0E552E55221D018
:1015F000150EDB5011081DE21E0EF36E150EDBCF2B
:10160000F4FFF350F45C15E2FD0EDBCFE9FFFE0EB4
:10161000DBCFEAFF0A0EE926000EEA22EF50E66E63
:10162000150EDB50150FEE0FE66E41EC0CF0E55297
:10163000E5520001EF51E840E840E8401F0BE76E3B
:10164000020EE7CFDBFF0001EF51200D030EF3CFB9
:10165000DBFF590EF36E070EF3CFDBFF080EEDC074
:10166000DBFFECC014F0EDC015F00001156A090EA7
:1016700014C0DBFF030EF36E060EF3CFDBFFE6684C
:10168000D950010FE66E000EDA20E66ED6EC44F07B
:10169000E552E552E552DF6A01D000D0DF5000D0BC
:1016A000146E160EE15C02E2E16AE552E16E14503E
:1016B000E552E7CFD9FF1200C9D8C1D8140ED8809F
:1016C000EE54000EED5441E3780E0001EF15AED854
:1016D000070EEF15200D020EF3CFDBFF9B0E9BD8FC
:1016E00005E0D89015321432E806FBE181D8FD0EF2
:1016F000DB50E76E090EE7CFDBFFA1D8EE50ED100F
:1017000006E1140EF36E0A0EF3CFDBFF11D0FD0ECF
:10171000DBCFF6FFFE0EDBCFF7FFF606000EF75A23
:10172000200EF626080EF72208000A0EF5CFDBFF82
:10173000050EF36EDB6EE668D9CFE6FFDACFE6FF83
:10174000D6EC44F0E552E552E5520F0EE15C02E2C0
:10175000E16AE552E16E88D0D9CFE6FFE1CFD9FF4B
:101760007CD8070EE926000EEA22EFCF16F016C04D
:1017700017F0166A72D8080EE926000EEA22EF501A
:101780001624146E000E1720156E0001EC5114186B
:1017900005E1ED51151802E1010E01D0000E64D0F3
:1017A00055D80001EF5142D8EF51200D020EF3CF72
:1017B000DBFFF60E30D805E0D89015321432E8067B
:1017C000FBE116D8090E68C5DBFF5FEC43F00009AA
:1017D00002E0090EDB8E0A0EFBC0DBFF050EF36E86
:1017E000DB6E0F0EE15C02E2E16AE552E16E3CD095
:1017F000FF0E1416000E1516070E14C0DBFFECC00A
:1018000014F00001156AFF0E1416000E1516080ECE
:1018100014C0DBFF1200F36E060EF3CFDBFFECC04B
:1018200014F0EDC015F0080E0F0B1200E840E84070
:10183000E8401F0BE76E010EE7CFDBFF1200D95027
:10184000FD0FE96EFF0EDA20EA6E1200D9CFE6FF37
:10185000E1CFD9FF0F0EE1261200FD0EDBCFE9FF2D
:10186000FE0EDBCFEAFF1200E552E7CFD9FF1200F0
:10187000DFD8FE0EDB50A96EA69EA69CA680A850BF
:10188000DCD0D6D8F29EA69EA69CA684FE0EDB5087
:10189000A96EFD0EDB50A86E550EA76EAA0EA76EA0
:1018A000A682A1A8FED7A198F28EC7D0C1D8030EF8
:1018B000E126FE0EDB50DF6EDF50DF2AE66ED8DF5A
:1018C000E552E66ED950010FE96EDACFEAFFE55234
:1018D000E750EE6EED6ADFCFE6FFCADFE552166E27
:1018E000176E166A010EDB501610146E020EDB50D6
:1018F0001710156E010E14C0DBFF020E15C0DBFFC2
:10190000010EDBCF14F0020EDBCF15F014C0F3FF95
:1019100015C0F4FF030EE15C02E2E16AE552E16EFC
:101920008CD086D8E652FE0EDB50DF6EFC0EDBCF8D
:10193000E6FFDF50DF2AE66EA4DFE552E552FC0E3B
:10194000DBCF14F0FD0EDBCF15F015C014F0156AD7
:101950001450E66EDFCFE6FF94DFE552E552E55224
:101960006CD066D8020EE126DF6A0A0EDF5C11E257
:10197000010EDB6ADB50146E156A153404E2145054
:10198000F508000E155403E3010EDB2AF3D7DF2A16
:10199000ECD7020EE15C02E2E16AE552E16E4DD065
:1019A00047D8E652DF6A640EDF5C03E2DADFDF2A43
:1019B000FAD7E55242D03CD8FD0EDB501FE1200E95
:1019C00030D802E2000E2CD0400E2BD802E2010EDD
:1019D00027D0600E26D802E2020E22D0800E21D837
:1019E00016E3A00E1ED80DE3C00E1BD802E2050EB2
:1019F00017D0E00E16D811E3070E12D0FE0EDB044E
:101A000002E1040E0DD0FE0EDB50020802E1030ECF
:101A100007D0FE0EDB50030802E1060E01D0000ED7
:101A20000CD0F36EFE0EDBCFF4FFF350F45C12002B
:101A3000D9CFE6FFE1CFD9FF1200E552E7CFD9FFBA
:101A400012001CEE00F02CEE00F0F86A019CFEEC97
:0E1A50005DF0D9EC5EF028EC04F0FBD712003C
:021A5E000E0078
:101A6000F7BD00002C06000001000000F6BD0000DC
:101A70002B06000001000000F5BD00002A06000052
:101A800001000000F1BD0000180600000400000085
:101A9000F0BD00002906000001000000EEBD0000BE
:101AA0002206000002000000EDBD00002806000034
:101AB00001000000EBBD0000200600000200000055
:101AC000E9BD00001E06000002000000E5BD0000A8
:101AD0001406000004000000E3BD00001C06000026
:101AE00002000000DFBD000010060000040000003E
:101AF000B5BD0000680500002A000000B4BD00006C
:081B00002706000001000000AF
:081B080006011E511F5D01E101
:101B10001200FE0E1F5D16E0270EE66EE66A010E4D
:101B2000E66E020EE66E050E96EC26F01B0E05EC38
:101B300023F0EF5096EC26F02DEC23F0C7EC2AF0C2
:101B4000B9EC27F01EC61FF6270EE66EE66A04EC17
:101B50002DF04FEC29F0C7EC2AF0010EE66E020ED4
:101B6000E66E050EE66EB9EF27F087EC23F00B0E5C
:101B7000E126460EF36E090EF3CFDBFF0D0EF36E7A
:101B80000A0EF3CFDBFF0501005101110FE18DECCF
:101B900035F006C000F507C001F5FF0E050100177E
:101BA000070E0117000E0027040E01233C0EE66EFF
:101BB000E66AE66AC40EE66E040EE66E76EC5BF04C
:101BC000146E050EE15E1450010EDB6ADF6A30EC24
:101BD00025F001E388D0DFCF1EF6DAEC24F0F62AF8
:101BE000000EF7220800080EF5CFDBFFDAEC24F038
:101BF000020EF626000EF7220900020EF5CFDBFFDB
:101C00000A00030EF5CFDBFFDAEC24F0040EF62613
:101C1000000EF7220900040EF5CFDBFF0A00050EC7
:101C2000F5CFDBFF080EDB502AE1090EDBCF08F011
:101C30000A0E1DEC2AF0A9EC24F0270E1626000E41
:101C400017224CEC28F0040EC3EC2AF0050E4CECE5
:101C50002BF0A5EC26F0090F80EC29F0090EDBCF64
:101C600014F00A0E2DEC26F0D880FC0E14541F0E32
:101C70001554000E1654000E175402E2EFD7FFD78A
:101C80000601CEEC2BF0080EDBCFEFFF270EE76E40
:101C9000FAEC25F0E7501426000E152202EC23F092
:101CA00097EC23F0A9EC24F02CEC2CF06CEC28F051
:101CB00097EC23F01CEC29F06CEC28F0F3EC23F00B
:101CC0007EEC2BF06AEC2CF00D0EEF6E67EC28F03A
:101CD000EF961ADFDAEC24F00800F5CF28F51EECB9
:101CE0001BF0DF2A74D70B0EE15C02E2E16AE552D9
:101CF000E16E8CEF23F087EC23F0E652DF6A30ECE4
:101D000025F001E394D0DFCF1EF68FEC2CF00D0808
:101D100001E08BD0F9DEF70EDB500501285D01E014
:101D200084D0180E256F020E266FFA0EDB5017E1D5
:101D3000F80EDBCF12F5F90EDBCF13F5060167ECD9
:101D400028F0EF8671EC28F0040EEF6ECCEC28F052
:101D5000F80EDBCFEEFFF90EDBCFEDFF64D0000E07
:101D6000005D040E015906E3880ED8800055130E5D
:101D7000015503E2006B040E016F00C512F501C5A9
:101D800013F5002B000E0123F80EDBCF10F5F90E32
:101D9000DBCF11F58FEC5DF0CDEC2AF0D7EC2CF019
:101DA0000E0E2DEC2BF067EC28F0EF88FA0EDB50CE
:101DB000040A2AE0070A37E1FB0EDBCF1AF0FC0E1B
:101DC000DBCF1BF0FD0EDB501A24186EFE0EDB502D
:101DD0001B20196E60EC2BF0FB0EDBCF18F5FC0E10
:101DE000DBCF19F5FD0EDBCF1AF5FE0EDBCF1BF5B1
:101DF0000501276B1E0E026F036B046B056B53EC22
:101E00002BF0020EEF6E0FD08CEC29F060EC2BF073
:101E100026EC2AF053EC2BF0050EEF6E010EE66E69
:101E2000020E41EC24F0DF5003D0DF2A68D7FE0E0B
:101E3000E5528CEF23F084EC29F00AE241EC25F026
:101E40008CEC2CF0EF50100B05E050EC2BF0EF98E1
:101E5000010E01D0000E8CEF23F084EC29F006E295
:101E600041EC25F08FEC2CF0070802E0000E01D0C9
:101E7000010E8CEF23F084EC29F041E2BDEC2CF054
:101E80006AEC2CF0EF50080A34E0010A32E0050A4F
:101E900030E0020A29E0050A1AE00D0A0BE0010A07
:101EA00009E0070A2AE0020A28E0010A26E0060AF9
:101EB00020E123D02CEC2AF006E0D3EC2BF0FAE161
:101EC0000F511518F7E153EC2BF0080E10D02CEC45
:101ED0002AF006E0D3EC2BF0FAE10F511518F7E1E8
:101EE00053EC2BF00C0E03D071EC28F00D0EEF6EBE
:101EF00006D0E66A140E41EC24F01EEC1BF08CEFC9
:101F000023F084EC29F00AE241EC25F0060167ECAD
:101F100028F0EF96F6EC2BF0AEDFE5528CEF23F0D5
:101F200084EC29F003E3F36AF46A16D041EC25F05F
:101F3000EBDD5BEC28F032EC26F0290EE66E050EA8
:101F4000E66E01EC26F010C533F511C534F5290E07
:101F5000146E050EEDEC2BF08CEF23F084EC29F0E1
:101F60000BE241EC25F0D0DDD3EC2BF002E10F5178
:101F7000151802E07BEC29F08CEF23F087EC23F0BE
:101F8000E65229EC23F00CE241EC25F053EC2BF067
:101F9000EFCFDFFF070EDF5C06E00B0EDF5C03E038
:101FA000F36AF46A29D084EC28F02DEC23F08CEC51
:101FB00028F029EC29F013E36CEC28F0E3EC2BF08B
:101FC0001606000E175A84EC28F0F8EC2CF08CEC76
:101FD00028F016EC25F014C0F3FFF46E0DD08CEC55
:101FE00028F024EC23F084EC28F080EC23F0140695
:101FF000000E155A04EC2AF0E5528CEF23F087EC22
:1020000023F0020EE12629EC23F007E241EC25F053
:1020100008EC26F06AEC25F002E1000E3ED00EEC52
:1020200026F004E1ED5002E18FEC24F08CEC2CF072
:10203000EF50010B0CE19FEC25F06CEC28F0FEEC6E
:1020400028F005E38FEC24F08CEC2CF0EF80010EEF
:10205000E66EE66AE66EC7EC27F076EC28F084ECD4
:1020600028F009EC2AF0DAEC2CF032EC2CF06CECD5
:1020700028F029EC29F002E3A6EC2CF00EEC26F077
:1020800005E1ED5003E18FEC24F006D075EC2BF068
:10209000200B02E1AFEC2BF0010E146E020EE15C9E
:1020A00002E2E16AE552E16E14508CEF23F039EC64
:1020B0002CF005E29AEC29F005E18FEC24F0F36AAC
:1020C000F46A2ED0A2EC29F003E2FA0E8CEC26F092
:1020D0008CEC2CF0EF50010B08E13EEC2CF005E30A
:1020E0008FEC24F08CEC2CF0EF80DBEC2BF006E393
:1020F000FAEC2BF0DDEC2CF06CEC2BF06FEC2AF012
:10210000DDEC2CF00FEC2CF003E38FEC24F006D088
:1021100075EC2BF0200B02E1AFEC2BF0C1EC25F0BD
:10212000060EE15C02E2E16AE552E16E8CEF23F01B
:1021300039EC2CF005E29AEC29F005E18FEC24F063
:10214000F36AF46A2ED08CEC2CF0EF50010B08E10E
:102150003EEC2CF005E38FEC24F08CEC2CF0EF80BF
:10216000A2EC29F003E2FA0E8CEC26F0DBEC2BF06B
:1021700006E3FAEC2BF0E2EC2CF06CEC2BF06FECBD
:102180002AF0E2EC2CF00FEC2CF003E38FEC24F0BF
:1021900006D075EC2BF0200B02E1AFEC2BF0C1EC7C
:1021A00025F0060EE15C02E2E16AE552E16E8CEF99
:1021B00023F087EC23F0C0EC26F001EC24F0B1EC26
:1021C0005BF0E552E552F3CF18F0F4CF19F0F3CFFE
:1021D000E6FFF4CFE6FF01EC24F0F6EC2BF067DF2E
:1021E0001A6E050EE15E1A5036EF29F087EC23F0E7
:1021F000C0EC26F0FC0EDBCF1AF0FD0EDBCF1BF09F
:102200001C6A1AC0E6FF1BC0E6FF1CC0E6FFBFEC5D
:102210005BF0E552E552E55207C018F008C019F02E
:1022200007C0E6FF08C0E6FF01EC24F0F6EC2BF057
:102230007FDF1D6E050EE15E1D5036EF29F074EC58
:102240002AF029EC23F003E3F36AF46A0DD041ECA1
:1022500025F05BEC2BF01406000E155A33EC25F03C
:1022600008EC26F043EC2CF0040EE15C02E2E16A9B
:10227000E552E16E8CEF23F087EC23F0F3EC24F0D1
:10228000F350F41006E0BDEC2CF097EC23F07BEC5F
:1022900029F08CEF23F084EC29F003E3F36AF46A6D
:1022A00024D0BDEC2CF029EC29F00CE37FEC28F0D5
:1022B00024EC23F07AEC28F0EE50165C146EEE500D
:1022C000175811D0C9EC28F07AEC28F088EC24F0EB
:1022D0004CEC28F07FEC28F000EC2CF016501A247F
:1022E000146E17501B20EDEC2BF08CEF23F087ECD5
:1022F00023F0020EE126F3EC24F06AEC25F002E173
:10230000000E25D041EC25F007EC2CF006E0010E84
:10231000E66EE66A0601E9EC2BF006017AEC28F09D
:1023200032EC2CF0ABEC2CF002E296EC2BF00EEC45
:1023300026F006E1ED5004E150EC2BF0EF8406D0DE
:1023400075EC2BF0200B02E114EC2CF0010E146E56
:10235000020EE15C02E2E16AE552E16E14508CEF9C
:1023600023F074EC2AF0020EDB6A030EDB6AF3EC56
:1023700024F06AEC25F003E1F36AF46A71D041ECD1
:1023800025F0F9EC24F03CEC26F008EC24F008E20F
:10239000D1EC28F0FA0EEECFDBFFFB0EEDCFDBFF2A
:1023A000FAEC23F006017AEC28F048EC2CF026E257
:1023B00089EC28F07AEC28F080EC23F010EC29F07E
:1023C00033EC25F007EC2CF00EE0020EDBCFE6FF3D
:1023D000030EDBCFE6FFE9EC2BF090EC23F0D950B5
:1023E000FC0FB2EC29F090EC23F0D950FA0F4CEC32
:1023F00024F09EEC24F0060196EC2BF007EC2CF078
:1024000004E05FEC29F0E9EC2BF0F9EC24F0060194
:102410007AEC28F075EC24F090EC23F0D950FA0F08
:10242000B2EC29F03CEC26F0FA0E85EC2AF0FB0E1B
:10243000DB501758156EFA0EDBCF18F0FB0EE0ECF0
:1024400026F004E350EC2BF0EF8406D075EC2BF073
:10245000200B02E114EC2CF0F9EC24F004EC2AF04F
:10246000040EE15C02E2E16AE552E16E8CEF23F0DA
:1024700074EC2AF029EC23F003E3F36AF46A0BD03E
:1024800041EC25F00601A7EC2BF033EC25F0F3EC42
:1024900024F043EC2CF0040EE15C02E2E16AE55228
:1024A000E16E8CEF23F0ADEC29F029EC23F003E290
:1024B0006EEC2CF003E1F36AF46A73D041EC25F082
:1024C000F3EC24F0D9EC26F0FAEC23F0F80EC3EC90
:1024D0002AF0F90E4CEC2BF0020EDBCF18F0030EB5
:1024E000E0EC26F00FE2A9EC24F0F80E85EC2AF0DF
:1024F000F90EDB501758156EFA0E14C0DBFFFB0EF9
:1025000015C0DBFFC9EC2CF014C0DEFFDD6E9FECC4
:1025100025F0ABEC2CF006E2A7EC2BF010EC29F048
:10252000FDEC2CF03CEC26F07EEC2BF0E4EC26F0FD
:1025300010EC29F066EC29F0F9EC24F01CEC29F001
:1025400008EC24F005E35FEC29F0B6EC29F025D087
:10255000040E27EC26F0B6EC29F0FAEC23F045EC5B
:1025600025F00601ABEC2BF0010EE66E040EDBCF7E
:102570001AF0050EDBCF1BF0FC0EDB501A24186E90
:10258000FD0EDB501B20196E18C0E6FFE66E67ECEF
:1025900022F01C6E080EE15E1C50F9EC24F004ECF5
:1025A0002AF0060EE15C02E2E16AE552E16E8CEF90
:1025B00023F087EC23F0E65201EC24F0010E31EC1D
:1025C0002BF0F6EC2BF06FDF146E070EE15E14506B
:1025D000DF50E5528CEF23F0E1EC2AF003E26EECE1
:1025E0002CF003E1F36AF46AB7D0F1EC28F001E2D1
:1025F000AAD0D950F60FECEC28F005E0D6EC29F083
:1026000002E267EC26F08FEC2BF002E24DEC2CF0AE
:102610001AEC2CF076EC25F001E3DB2A63EC28F0D1
:102620000F0EDB6AF50EDB5008E0D2EC24F005E378
:10263000B5EC27F002E357EC24F0A9EC25F003E217
:10264000040EA8EC26F050EC26F003E2020EA8ECF3
:1026500026F0A8EC28F004E1B7EC2CF057EC27F0BA
:10266000F50EDB5041E00C0EDB6A53EC25F068E21E
:10267000C9EC25F005E3D6EC25F002E3E7EC2AF0FF
:1026800079EC2AF019E1B4EC26F001E2DB068CECDF
:1026900027F039E0FC0E76EC25F001E3DB2A63EC51
:1026A00028F0BAEC26F0D2EC24F01BE3B5EC27F0CE
:1026B00018E357EC24F015D062EC24F012E07AEC29
:1026C00024F076EC25F001E3DB2A63EC28F0D2EC71
:1026D00024F005E3B5EC27F002E357EC24F00F0EED
:1026E000DB6A0C0EDB2AC1D70C0EDB6A53EC25F03B
:1026F00027E279EC2AF014E1B4EC26F001E2DB06E3
:102700008CEC27F003E1B5EC24F026D0FC0E76EC3F
:1027100025F001E3DB2A63EC28F0BAEC26F00DD0BB
:1027200062EC24F00AE07AEC24F076EC25F001E388
:10273000DB2A63EC28F00F0EDB6A0C0EDB2AD6D7FF
:1027400096EC29F003E2F368F46806D0B6EC25F0C5
:10275000060F80EC29F071D7300EE15C02E2E16AED
:10276000E552E16E8CEF23F0E1EC2AF003E26EEC2F
:102770002CF003E1F36AF46AB7D0F1EC28F001E23F
:10278000AAD0D950F60FECEC28F005E0D6EC29F0F1
:1027900002E267EC26F08FEC2BF002E24DEC2CF01D
:1027A0001AEC2CF07DEC25F001E3DB2A2DEC27F070
:1027B0000F0EDB6AF50EDB5008E0D2EC24F005E3E7
:1027C000B5EC27F002E357EC24F0A9EC25F003E286
:1027D000040EA8EC26F050EC26F003E2020EA8EC62
:1027E00026F0A8EC28F004E1B7EC2CF057EC27F029
:1027F000F50EDB5041E00C0EDB6A53EC25F068E28D
:10280000C9EC25F005E3D6EC25F002E3E7EC2AF06D
:1028100079EC2AF019E1B4EC26F001E2DB068CEC4D
:1028200027F039E0FC0E7DEC25F001E3DB2A2DECEE
:1028300027F0BAEC26F0D2EC24F01BE3B5EC27F03D
:1028400018E357EC24F015D062EC24F012E07AEC97
:1028500024F07DEC25F001E3DB2A2DEC27F0D2EC0F
:1028600024F005E3B5EC27F002E357EC24F00F0E5B
:10287000DB6A0C0EDB2AC1D70C0EDB6A53EC25F0A9
:1028800027E279EC2AF014E1B4EC26F001E2DB0651
:102890008CEC27F003E1B5EC24F026D0FC0E7DECA7
:1028A00025F001E3DB2A2DEC27F0BAEC26F00DD061
:1028B00062EC24F00AE07AEC24F07DEC25F001E3F0
:1028C000DB2A2DEC27F00F0EDB6A0C0EDB2AD6D7A5
:1028D00096EC29F003E2F368F46806D0B6EC25F034
:1028E000060F80EC29F071D7300EE15C02E2E16A5C
:1028F000E552E16E8CEF23F087EC23F0F80EDBCF8E
:10290000E6FFF2EC26F0ECEC24F0010EE66EE66A4F
:10291000C7EC27F0F6EC2BF05FDE146E0A0EE15EDA
:1029200014508CEF23F0ADEC29F0DF6A30EC25F089
:1029300001E3D2D1DFCF1EF6030EDB6A010EDB6AA4
:10294000020EDB6A8CEC2CF0EF50020B05E150EC30
:102950002BF0EF50040B11E0CDEC2DF000090DE051
:10296000100EA4EC25F08CEC2CF0EF50040B01E0E1
:10297000010EE76E010EE7CFDBFFBAEC2CF0200B67
:102980000EE002EC23F0120E23EC29F074EC26F09A
:1029900002E232EC27F003E3100EA4EC25F0BAECCF
:1029A0002CF0400B09E020EC2CF002E232EC27F096
:1029B00003E3100EA4EC25F08FEC2CF00B080DE1D6
:1029C00020EC2CF002E232EC27F007E3110EA4EC2D
:1029D00025F053EC2BF00C0EEF6E8FEC2CF004086E
:1029E0005BE128EC27F070EC25F056E272EC2CF05D
:1029F00053E031EC29F02DEC23F00601CCEC28F06B
:102A000024EC23F000011650141840E1175015185B
:102A10003DE184EC0DF05BEC28F009EC23F060EC78
:102A200027F032EC26F0D5EC27F064EC2AF0EECF5C
:102A300010F5EDCF11F509EC23F00C0E05EC23F0A9
:102A4000EECF0AF5EECF0BF5EECF0CF5EFCF0DF58F
:102A500005010A2B0B230C230D231A511825186E80
:102A60001B511921196E18501025166E195011217D
:102A7000176E16509DEC2CF0120EA4EC25F071ECA4
:102A800028F0060EEF6E32EC23F006D0040EDB2A9F
:102A9000050EA9E3DB2AA7D7030EDB5009E0010EE0
:102AA000DB5002E0000E01D0010EE66E95EC27F03F
:102AB000BAEC2CF0100B34E1C5EC2CF0070801E067
:102AC00009D189EC2AF001E005D1BAEC2CF0070B12
:102AD00006081CE175EC2BF0080B01E0010EE76E17
:102AE000030EE7CFDBFFDFCFE6FF3BEC0FF0E55255
:102AF000DFCFE6FF3BEC0FF0E552030EDB5001E0C9
:102B0000E9D053EC2BF00E0EEF6EE4D084EC0DF018
:102B1000020EE66E100E41EC24F091EC28F0DAD0B3
:102B200089EC2AF001E0D6D084EC0DF08FEC2CF08B
:102B30000C0A01E189D0060A01E180D0030A01E113
:102B40008ED0010A75E00F0A67E00C0A65E00D0AF5
:102B500057E0030A41E0060A13E0010A01E087D0CA
:102B60006DEC29F0D7EC2CF090EC2AF032EC26F04A
:102B7000E6EC4EF0E552E55253EC2BF0030E2AD072
:102B80001C0EE66E050EE66E32EC26F02BEC4FF0D6
:102B9000B0EC24F0000916E1D7EC2CF0120E23EC77
:102BA00029F0DCEC27F005011450025D15500359A3
:102BB0005EE2060E275D02E2E3EC27F053EC2BF019
:102BC000020E08D0020EA4EC25F0010EDB6A53ECD5
:102BD0002BF0050EEF6E4BD0020EA4EC25F0DE526A
:102BE000010EDD6E040E0501275D41E3040E276F23
:102BF000200E026FA10E036F070E046F056B37D016
:102C0000020E0501275D02E2120E23D0BAEC2CF071
:102C1000080B25E1020E09D0050E0501275D12E320
:102C200053EC2BF0080EEF6E110EF36E030E1DD059
:102C3000050E0501275D13E2110E0BD0050E0501EF
:102C4000275D0DE2100E05D0050E0501275D07E298
:102C5000110EA4EC25F0DE52010EDD6E08D0140E2C
:102C6000A4EC25F0010EF36E020EF3CFDBFF030E92
:102C7000DB502BE0010EDB5024E00501E3EC27F0F4
:102C80008CEC2BF09DEC27F066EC29F0C2EC2CF0DC
:102C900004E25BEC2BF076EC2CF0EEEC2AF0145016
:102CA00005017CEC26F0040EDBCF08F0050EDBCF2F
:102CB00009F0085014270950152301EC2DF0E66A9D
:102CC00002D0010EE66E95EC27F0020EDB5002E01A
:102CD0001EEC1BF0DF2A2AD628EC27F070EC25F03A
:102CE0001DE272EC2CF01AE009EC23F0120E23EC3A
:102CF00029F0DCEC27F06E0ED8801454010E155428
:102D000007E232EC23F0040EDB06050E01E2DB06DF
:102D1000040EDB2A050EE2E3DB2AE0D7060EE15CB7
:102D200002E2E16AE552E16E8CEF23F087EC23F0DA
:102D3000250EE1261DEC23F043EC27F0170EEECF15
:102D4000DBFFE5EC24F0180EEECFDBFF190EEECF23
:102D5000DBFF1A0EEECFDBFF1B0EEECFDBFF1C0EF0
:102D6000DB6A060EF36E1D0EF3CFDBFFEAEC27F0F5
:102D70001E0E08C0DBFF1F0E09C0DBFF1E0EDBCFDF
:102D8000E6FF1F0EDBCFE6FF46EC26F01E0EF3CF6C
:102D9000DBFF1F0EF1EC27F0140FE0EC29F0200E02
:102DA00014C0DBFF210E15C0DBFFF2EC26F05CEC5B
:102DB00030F0E552E552220EF3CFDBFF230EF4CFC5
:102DC000DBFF200EDBCF14F0210EDBCF15F0220E3F
:102DD000DB50141844E1230EDB50151840E1000EBF
:102DE000F9EC26F0140E31EC2BF0FCEC31F0B0ECE9
:102DF00024F0BCEC25F0E8DBE552E552D9500C0F8D
:102E00000DEC24F0E7EC25F0F8EC27F0240E14C0CC
:102E1000DBFFDB50166E176AEAEC27F01650085CF1
:102E2000146E17500958156E140E145E000E155AC4
:102E3000F90E14C0DBFFFA0E15C0DBFFE7EC28F03B
:102E4000BCEC25F098DAB0EC24F0000908E0F2ECD4
:102E500026F0BCEC25F0DFEC1BF0B0EC24F0D4EC59
:102E60002DF0010E146E250EE15C02E2E16AE552DE
:102E7000E16E14508CEF23F087EC23F0280EE1264E
:102E800084EC0DF0FE0EDBA005D08CEC2CF0EF8670
:102E9000FE0EDB90060192EC2CF0E7EC2CF0EF90AC
:102EA000CDEC2DF00009FCE0FE0EDB50060B05E03A
:102EB000260EDB6A270EDB6ABBD0D3EC2BF008E1D1
:102EC0000F51151805E1260EDB6A270EDB6A98D034
:102ED000DAEC2CF088EC29F023E2DAEC2CF084EC2C
:102EE00025F0156E3DEC2AF01450145D155015595F
:102EF00002E2FFEC27F0F1EC2AF009E2260E25C5EC
:102F0000DBFF270E26C5DBFF8CEC2CF0EF8400ECFA
:102F100027F004EC2DF0BDEC29F098EC2AF070D0ED
:102F2000B7EC2CF084EC25F0A5EC27F0240EDBCFD9
:102F300018F0250EDBCF19F0DAEC2CF019EC26F0A6
:102F400053EC29F03DEC2AF005011450145D1550A6
:102F5000155902E2FFEC27F0F1EC2AF009E2260E07
:102F600025C5DBFF270E26C5DBFF8CEC2CF0EF849C
:102F7000240EDBCF14F0250EDBCF15F007EC27F085
:102F800008EC24F004E28BEC25F006EC28F00EECC3
:102F900027F004EC2DF0BDEC29F007EC27F0240E0F
:102FA00085EC2AF0250EDB501758A5EC27F0D950F8
:102FB000240FB5EC2BF01BE00EEC27F004EC2DF009
:102FC00002EC23F047EC24F0E66A6CEC28F084EC89
:102FD00025F0156E166A176A8B0E1426070E152239
:102FE000000E1622172223EC27F092EC25F098EC25
:102FF0002AF0B7EC2CF088EC29F002E3D0EC2CF0AE
:103000008CEC2CF0EF50080B13E03AEC25F00501A6
:103010001451141802E1155115180AE007EC27F0B5
:103020002551161802E12651171802E0FE0EDB802A
:103030007DEC2AF0EE50ED1004E1FE0EDB50030BA8
:103040001EE08BEC25F008500501145F0950155B5C
:103050007DEC2AF0EE50ED1002E0FE0EDB86FD0E58
:10306000DBA007D0276B120E026F7A0E036F046B82
:10307000056BD6EC28F067EC28F0EF8831D0FD0E18
:10308000DBA21CD0BAEC2CF0070BE82AF36EE85058
:10309000070BF36EF46EF80EEF14F310EF6EF450AE
:1030A00005010607000E075B085B095B010EF36E66
:1030B000260EF3CFDBFF270EDB6A12D0BAEC2CF022
:1030C000100B0EE0FD0EDBB009D00501275106E024
:1030D0002707D8900533043303330233D6EC28F0A6
:1030E000020E12C5DBFF030E13C5DBFF040E10C575
:1030F000DBFF050E11C5DBFF060E06C5DBFF070E65
:1031000007C5DBFF080E08C5DBFF090E09C5DBFF9D
:103110000A0E0AC5DBFF0B0E0BC5DBFF0C0E0CC540
:10312000DBFF0D0E0DC5DBFF0F0EDB9CDB9E0E0ED5
:10313000DB90DB92DB94DB96FE0EDB50E76E0F0E2E
:10314000E7CFDBFF140EDB6A150EDB6A3AEC25F0E5
:1031500099EC26F0FE0EDBA21AD0DBB808D00A0EDE
:10316000DB6A0B0EDB6A0C0EDB6A0D0EDB6A24A336
:1031700008D0F2EC2BF0EE06000EEE5AEE5AEE5AA4
:1031800006D0062B000E0723082309232483FE0EF6
:10319000DBB02481060156EC2BF029EC29F003E387
:1031A00083EC2BF002D0BAEC2BF0100E14C0DBFF36
:1031B000110E15C0DBFF04EC2EF00DEC2AF09FEC95
:1031C00025F0400E145C000E155803E2DE6ADD6A3D
:1031D00006D0D1EC28F0400EEE5E000EED5A20EC49
:1031E00026F03CEC26F008EC24F008E2D1EC28F0C4
:1031F000100EEECFDBFF110EEDCFDBFFD950020F2B
:1032000041EC26F0E1D9E552E5527DEC2AF0140EAE
:10321000EE26000EED220E0EDB88DB9ADB8CDB9EA9
:10322000FE0EDBA22CD07DEC2AF0040EEE26000E62
:10323000ED22020EF36E160EF3CFDBFF040EF36EDB
:10324000170EF3CFDBFF020EF36E180EF3CFDBFF8A
:1032500051EC28F0010E146ED9500E0F0DEC24F035
:10326000F8EC2AF014240F0BF36EF46EF346F346D9
:10327000F346F3460F0EEF14F310EF6EF4501A0EF0
:1032800035C5DBFF1B0E36C5DBFF1C0E37C5DBFF6C
:103290001D0E38C5DBFF1E0E18C5DBFF1F0E19C53E
:1032A000DBFF200E1AC5DBFF210E1BC5DBFF220E44
:1032B000DB6A060EF36E230EF3CFDBFF8BEC25F0FB
:1032C00006EC28F00EEC27F046EC26F0240EF3CFA7
:1032D000DBFF250EF1EC27F01A0FE0EC29F0120EBF
:1032E00014C0DBFF130E15C0DBFF630EADEC27F03F
:1032F00000EC27F0060EE66E32EC26F07DEC57F07F
:10330000146E050EE15E1450140EE66EE66AD95096
:10331000020F41EC26F081EC2AF0FE0EDBA209D070
:10332000040EE66EE66AD950160F41EC26F081ECE9
:103330002AF0770EE66E070EE66E2BEC30F0E552C3
:10334000E55200EC27F05CEC30F0E552E5520DEC74
:103350002AF0870EADEC27F0020E31EC2BF081EC59
:103360002AF09DEC2FF0280EE15C02E2E16AE552C2
:10337000E16E8CEF23F0ADEC29F0C4EC28F0EE50B8
:10338000ED1001E199D0DE52FE0EDD6E8CEC29F0DD
:103390001DEC23F019EC26F0C4EC28F01650EE18C2
:1033A000146E1750EE18156E33EC25F0DF6A30EC12
:1033B00025F04DE2DFCF1EF68FEC2CF00D0845E036
:1033C000C5EC2CF0040813E1CCEC28F02DEC23F034
:1033D000C4EC28F024EC23F016500001141835E159
:1033E0001750151832E1010EDFCFDBFF2ED0CCECE9
:1033F00028F02DEC23F0020EDB50141826E1030E0A
:10340000DB50151822E151EC2CF005011251141873
:103410001CE11351151819E11DEC23F024EC23F0E5
:103420001051161812E1115117180FE1E5EC24F0B4
:10343000EE5018190AE1EE50191907E1EE501A1969
:1034400004E1EE501B1901E129E0DF2AB0D7010E9B
:10345000DB50FE0825E0010EDBCF1EF684EC0DF0FC
:10346000010EDB50FE081CE00601CCEC28F0020E39
:10347000DBCFEEFF030EDBCFEDFF26EC2AF01DECD9
:1034800023F0EECF10F5EDCF11F5C4EC28F0EECF20
:1034900012F5EDCF13F5060135EC2BF0010E8AD0B5
:1034A0001DEC23F00D0E05EC23F0EF50020B04E0B1
:1034B0000401FC51FD1102E0000E7CD028EC27F045
:1034C00070EC25F032E272EC2CF02FE031EC29F0B8
:1034D0002DEC23F0C4EC28F039EC2BF020E1175050
:1034E00015181DE164EC2AF02DEC23F01DEC23F0FF
:1034F00039EC2BF014E11750151811E1E5EC24F02C
:1035000045EC2AF0EE500001141808E1EE501518B1
:1035100005E1EE50161802E1EE5017183FE0040ED8
:10352000DB2A050ECDE3DB2ACBD7DF6A30EC25F0B2
:1035300040E2DFCF1EF6BAEC2CF0080B38E051EC7D
:103540002CF014500501121932E1155013192FE116
:103550005BEC28F0ECEC24F009EC23F060EC27F0B5
:10356000D5EC27F01DEC23F02DEC23F064EC2AF0D1
:1035700097EC23F01DEC23F0040E05EC23F045EC52
:103580002AF00C0E05EC23F03DEC24F0C4EC28F0FE
:103590002DEC23F031EC29F097EC23F099EC5DF061
:1035A00007C015F009EC23F090EC2AF003D0DF2AD5
:1035B000BDD7000E146E060EE15C02E2E16AE55230
:1035C000E16E14508CEF23F087EC23F01DEC23F018
:1035D00078EC2BF01DEC23F037EC27F0C4EC28F04E
:1035E00078EC2BF0C4EC28F07AEC2CF0040E3FECD5
:1035F00029F0040E2DEC2BF01DEC23F0080E3FEC0F
:1036000029F0080E2DEC2BF0D1EC29F078EC2BF002
:10361000D1EC29F07AEC2CF0100EECEC2CF0100E22
:1036200005EC23F07AEC2CF0120EECEC2CF0120EE0
:1036300005EC23F037EC27F08CEF23F084EC0DF051
:103640000601CCEC28F012C5EEFF13C5EDFFA6EC89
:103650002CF056EC2CF06CEC28F02DEC23F07FECE9
:1036600028F097EC23F096EC2BF075EC2BF0080B80
:1036700002E0040E01D00D0EE66E71EC28F0E5526A
:10368000E750EF6EF1EC2CF067EC28F0EF9892EC3D
:103690002CF0EF9050EC2BF0E7EC2CF0EF9650EC88
:1036A0002BF0EF8805012491249324972499060197
:1036B00035EC2BF04EEC35F0F3CF06F5F4CF07F5F3
:1036C0004EEC35F0F3CF08F5F4CF09F5050122698A
:1036D0002369010E146F156B120074EC2AF00C0EA6
:1036E000F9EC26F0EFEC31F0DF6EF00EDF14E8407D
:1036F000E8403F0BF8EC27F01450DF6EDF5053E04A
:10370000070EE66E4DEC2AF0DF50DF0600094BE0B5
:1037100084EC26F048E0010EDB04F6E0010EDB50FD
:10372000020831E1030EDF5C3EE3020EDB6A030EAA
:10373000DB6A84EC26F004080CE1EFEC31F0E76E74
:10374000030EE7CFDBFFEFEC31F0E76E020EE7CFC1
:10375000DBFF90EC23F0180E145C020E155823E3E7
:10376000D950020F0DEC24F0B40ED880EE54050EA3
:10377000ED5404E2B40EF36E050E18D090EC23F075
:1037800004EC2AF014D0020EDF5C0DE384EC26F08A
:10379000DF5C09E3010EDBCFE6FF4DEC2AF0010E02
:1037A000DB50DF5EB1D7180EF36E020EF46E040E1E
:1037B000E15C02E2E16AE552E16E8CEF23F087EC16
:1037C00023F01C0EE1261DEC23F00D0E05EC23F07A
:1037D0000E0EEFCFDBFF1DEC23F0080E05EC23F0FF
:1037E0000F0EEECFDBFF100EEECFDBFF110EEECF94
:1037F000DBFF120EEECFDBFF1DEC23F0040E05EC19
:1038000023F0130EEECFDBFF43EC27F00601F1ECC3
:103810002CF075EC2BF0100B02E191EC28F0C5ECCC
:103820002CF0050A25E0010A10E00DEC28F0170E37
:1038300008C0DBFF180E09C0DBFF0E0EDBA059D05D
:10384000170EDB2A180E55E353D00E0EDBB47FEFB4
:1038500021F0DBA805D01FEC25F0E66A040EF6D2B5
:10386000DBA27FEF21F05CEC25F014EC28F035D0E2
:103870000E0EDBB486EF21F0DBA811D07EEC2CF02D
:10388000061901E02DD1EE50071901E029D1EE50C3
:10389000081901E025D1EE50091901E021D10E0EE1
:1038A000DBA286EF21F05CEC25F0D1EC29F0EECF25
:1038B00014F5EDCF15F514EC28F00E0EDBA80DD0A5
:1038C0007BEC29F053EC2BF0070EEF6E91EC28F017
:1038D00067EC28F0EF9886EF21F0010EE66E120EED
:1038E00041EC24F053EC2BF0060EEF6E86EF21F046
:1038F000DB2A0E0EDBA205D0170EDB2A180E01E321
:10390000DB2A56EC2BF029EC29F003E383EC2BF0B7
:1039100002D0BAEC2BF00C0E14C0DBFF0D0E15C05C
:10392000DBFFD950130F0DEC24F005010A51EE5CBA
:10393000146E0B51EE58156E0C51EE58166E0D515B
:10394000EE58176EEBEC26F0080E16C0DBFF090EE2
:1039500017C0DBFF060EDBCF08F0070E55EC2AF090
:10396000190EDB6AFFEC2AF06EE0D9500C0FB5ECB3
:103970002BF001E183D05EEC2AF002E669EC27F03F
:1039800005E315EC29F0ECEC25F040E3170EDBCF56
:1039900014F0180E2DEC26F0F2EC2BF072EC27F060
:1039A0001734000E171809E6D880000E1454000EC4
:1039B0001554000E1654000E17542BE20C0EDBCFDC
:1039C0001CF00D0EDBCF1DF0170EDB501C5C186ECB
:1039D000180EDB501D58196E1A6A1B6A19AE02D0F8
:1039E0001A681B68F2EC2BF0030EEBCFF3FF1B50B1
:1039F000F318E8AE02D0F33408D0EE50185CEE5065
:103A00001958EE501A58EE501B5803E3010E51ECB2
:103A100028F015EC29F0030EEB501718E8AE02D091
:103A2000173402D0ECEC25F029E2170EDBCF1AF0A8
:103A3000180EC8EC26F0E83421E218500008000EF9
:103A400019541CE218D0FAEC25F0080EDBCF16F062
:103A5000090EDBCF17F014501510161017100BE0DD
:103A60005EEC2AF002E669EC27F008E315EC29F099
:103A7000ECEC25F003E2010E51EC28F0190EDB50BE
:103A800006E10E0EDBB486EF21F082EF21F00E0E80
:103A9000DB50060B02E07FEF21F00E0EDBA886EF75
:103AA00021F08FEC2CF00C0A01E1EAD10B0A3DE089
:103AB0000F0A3BE0010A39E0020A37E0010A35E06B
:103AC0000C0A01E0FDD17EEC2CF0061908E1EE5065
:103AD000071905E1EE50081902E1EE50091921E03D
:103AE000130E06C5DBFF140E07C5DBFF150E08C558
:103AF000DBFF160E09C5DBFF1FEC25F0010EE66E9D
:103B0000040E41EC24F0130EDBCF06F5140EDBCFD0
:103B100007F5150EDBCF08F5160EDBCF09F586EF9E
:103B200021F053EC2BF0070EEF6E84EC28F084ECC0
:103B300025F0156E95EC24F015EC27F004E05BEC15
:103B40002BF076EC2CF0EEEC2AF0060EE96E050E6A
:103B5000EA6E72EC27F004EC29F0C3EC23F002E6E5
:103B60004DEC27F016E205012451010B09E00EECA3
:103B700026F005E1EE5003E1EE5001E1EE5002E0E7
:103B8000E66AC2D32DEC29F0EE06000EEE5AEE5A8C
:103B9000EE5A8CEC2BF00501EE500E5D186EEE50D7
:103BA0000F59196E1A6A1B6A19AE02D01A681B687F
:103BB0001850065D146E19500759156E1A500859A1
:103BC000166E1B500959176E04EC29F0C2EC2CF04C
:103BD0000CE204EC2CF0D1EC28F01450EE5E155001
:103BE000EE5A1650EE5A1750EE5AC3EC23F002E686
:103BF0004DEC27F072E204EC2CF0D1EC28F0EE5002
:103C0000145CEE501558EE501658EE50175865E3F8
:103C10000501249724998CEC2CF0EF908CEC28F083
:103C2000040EEECFDBFF050EEDCFDBFFDFCF14F090
:103C3000010EDBCF15F08CEC28F075EC24F0C0EC15
:103C400028F010EC25F008E3C2EC2CF02BE28CEC11
:103C50002BF084EC25F021D0B7EC2CF0E3EC2BF02A
:103C600005010E511624146E0F511720156E95EC98
:103C700024F0DBCF14F0050EDBCF15F08CEC2BF02D
:103C800029EC29F00FE28CEC28F024EC23F0040E50
:103C900085EC2AF0050EDB501758156E99EC26F0CE
:103CA00001EC2DF08CEC2BF02DEC23F06CEC28F0DB
:103CB00029EC29F00AE36CEC28F024EC23F053EC17
:103CC00029F08CEC28F09EEC24F06CEC28F088ECC9
:103CD00029F031E3D0EC2CF02ED08CEC2BF000EC62
:103CE0002AF002E10F51151826E024A723D024A9B9
:103CF0001FD08CEC2BF09DEC27F0166A176A15AEDE
:103D000002D01668176814507CEC26F0C2EC2CF038
:103D10000AE204EC2CF015AE02D0166817681450B5
:103D200005017CEC26F001EC2DF050EC2BF0EF843B
:103D30000501248924878CEC2BF02DEC23F084ECF6
:103D400028F039EC2BF025E11750151822E150EC42
:103D50002BF0EF50080B06E191EC28F067EC28F00F
:103D6000EF9817D0D6EC2BF014E10751EE1811E1C3
:103D70000851EE180EE10951EE180BE10AE1245149
:103D8000010B07E0060167EC28F0EF9850EC2BF0F0
:103D9000EF967EEC2CF0065D166EEE500759176E0E
:103DA000EE500859186EEE500959196ED1EC29F0F1
:103DB000E4EC26F01A0E14C0DBFF1B0E15C0DBFF6F
:103DC0001451151108E1D9501A0FB5EC2BF003E08E
:103DD0008CEC2CF0EF821A0EDBCF14F51B0EDBCF30
:103DE00015F58FEC2CF0080826E1D6EC2BF068E1F5
:103DF0000751EE1865E10851EE1862E10951EE181D
:103E00005FE15EE12451010B5BE08FEC5DF071EC52
:103E100024F05A0E1426620E1522020E1622000EEF
:103E200017229CEC2BF067EC28F0EF8871EC28F05F
:103E3000090EEF6E45D0C5EC2CF009080AE10E0E14
:103E4000DBB03ED01FEC25F0E66A140E41EC24F006
:103E500056D2C5EC2CF00A0833E1D6EC2BF001E089
:103E600055D20751EE1801E051D20851EE1801E089
:103E70004DD20951EE1801E049D201E047D23FD2BC
:103E800006C514F007C515F008C516F009C517F0EA
:103E9000142A37EC26F02DEC29F01450EE1801E02E
:103EA00035D21550EE1801E031D21650EE1801E06F
:103EB0002DD21750EE1801E029D201E027D21FD2EF
:103EC0000E0EDBBA23D28FEC2CF00B0801E11ED2D0
:103ED000C5EC2CF00A0801E119D2C5EC2CF00C0855
:103EE00001E114D2D950FB0FECEC28F001E184D1B0
:103EF00098EC25F0153402E232EC27F001E2AAD06A
:103F0000A0EC2AF0166E176A0A0EDB50F35C146EF2
:103F10000B0EDB5069EC2AF0FAEC57F0E552E55253
:103F200098EC25F0D950FB0FB2EC29F003EC2BF004
:103F30001BEC28F008EC24F00CE20C0EDBCF08F0B0
:103F40000D0EDBCF09F0FB0E08C0DBFFFC0E09C035
:103F5000DBFFFB0EDBCF14F0FC0E59EC26F074EC0B
:103F600029F006017FEC28F048EC2CF029E289ECDE
:103F700028F07FEC28F0C4DB10EC29F095EC24F05D
:103F800027EC26F091EC27F05AEC2CF0AFEC2CF05B
:103F900092EC25F0FB0EDBCF18F0FC0EDBCF19F016
:103FA000040EDB50185C166E050EDB501958176EA8
:103FB000B7EC2CF0F3EC23F07FEC28F0B8DB0BD05F
:103FC0003EEC2BF05AEC2CF003EC2BF006017FECCE
:103FD00028F075EC24F00501221D01E1231D01E10B
:103FE0000BD10DEC28F00850225F0950235B1651CD
:103FF0002225146E17512321156E95EC24F0DBCF8A
:1040000014F015EC27F022E10501233504E22251DA
:104010000008000E235501E2EFD082EC2CF059ECA1
:1040200026F0C0EC28F006017FEC28F075EC24F0B7
:104030007FEC28F012DBABEC2CF008E2A7EC2BF0C5
:1040400010EC29F07FEC28F09EEC24F005012269A9
:104050002369D2D098EC25F0153401E3CDD032ECB1
:1040600027F001E3C9D01CEC27F07BEC27F00C0E05
:10407000DBCF18F00D0EE0EC26F00AE21BEC28F086
:1040800080EC27F0FB0E14C0DBFFFC0E15C0DBFF3D
:10409000A0EC2AF0F9EC26F022EC28F006017FECE7
:1040A00028F019EC26F07BEC27F07EEC2BF087EC67
:1040B0002CF014501A5C15501B583AE2C9EC28F049
:1040C0007FEC28F088EC24F04CEC28F080EC27F012
:1040D00095EC24F015EC27F00DE1040E27EC26F00A
:1040E00091EC27F00601C4EC2BF092EC25F0AFEC3C
:1040F0002CF022D03EEC2BF004EC2DF022EC28F03A
:104100007FEC28F019EC26F07EEC2BF000EC2CF084
:10411000010E1A26000E1B221A50165C146E1B503C
:1041200069EC2AF0D4D91E6E080EE15E1E5006D04E
:104130003EEC2BF0C4EC2BF092EC25F00501221D97
:1041400007E1231D05E130EC28F029EC28F054D0DC
:1041500098EC25F02251145C235115582AE200EC0A
:1041600025F013E3FB0EDBCF1CF0FC0EDBCF1DF0C4
:104170000A0EDB501C241A6E0B0EDB501D201B6E2A
:1041800022511A5C23511B5803E229EC28F00ED06F
:1041900037EC28F00A0EDB500001145C0501166FA5
:1041A0000B0EDB50000115580501176F30EC28F09D
:1041B00023D000EC25F020E298EC25F022511625C2
:1041C000166E23511721176E23DB16E3FB0EDBCF90
:1041D0001AF0FC0EC8EC26F02251185C166E235122
:1041E0001958176E1651165C146E17511758156E24
:1041F0001450162715501723FFEC2AF01FE08FEC00
:104200002CF0070803E056EC2BF091DA75EC2BF05C
:10421000800B05E07BEC29F084EC0DF00FD067EC0F
:1042200028F0EF8E75EC2BF0400B08E167EC28F0DE
:10423000EF8C6DEC29F00C0EC8EC29F00E0EDBA013
:1042400065D00AC514F00BC515F00CC516F00DC5E8
:1042500017F0142A37EC26F0170EDBCF18F0180EE3
:10426000DBCF19F01A6A1B6AD950130FD6DAEE5059
:104270001826EE501922EE501A22EE501B2214502E
:10428000181844E11550191841E116501A183EE16A
:1042900017501B183BE13AE10AEC2BF08FEC2CF0A5
:1042A000090A2AE0010A16E00F0A0AE0010A2AE1D7
:1042B00071EC28F00C0EEF6E010EE66E110E25D09B
:1042C00071EC28F00B0EEF6E6DEC29F0180EC8ECB7
:1042D00029F018D0D6EC2BF00AE10751EE1807E1CF
:1042E0000851EE1804E10951EE1801E105E053EC24
:1042F0002BF00A0EEF6E06D0E66A100EC2DA1EEC44
:104300001BF004D0010EE66E100EBBDA1C0EE15C51
:1043100002E2E16AE552E16EFFD1ADEC29F099D9F4
:1043200001E388D0AEDB07EC2CF007E1010EF36E61
:10433000FC0EF3CFDBFFFD0EDB6A060189EC28F0F3
:1043400053EC29F01406000E155A14C0DEFF15C0F8
:10435000DDFF50DA87EC27F0DECF18F0DDCF19F063
:1043600012EC2AF067E384EC0DF0F90EDB50030B3E
:1043700003E1F90EDB80DB8211EC2BF0040E08C0A8
:10438000DBFF050E09C0DBFF35DA87EC27F0FDEC1B
:104390002CF0F90EDBA20AD0DBA005D0D0DBD89040
:1043A0001532143201D0CBDB76EC2CF01CEC29F06A
:1043B00006012CEC2CF014C0DEFF15C0DDFF7FECF5
:1043C00028F0020EEECFDBFF030EEDCFDBFF050181
:1043D000221D01E1231D12E037EC28F0D950020F15
:1043E00080EC29F09DD90601ABEC2CF007E2A7EC9C
:1043F0002BF0A5EC26F0020F0BEC2CF006015EEC86
:104400002CF0CBDA0AE29BDB7AEC28F01DD900DA3B
:104410001BE2F90EDBB40ED00FD05EEC2CF0F8D915
:104420000BE28DDB6CEC28F00FD9F2D90DE2F90E1E
:10443000DBA402D0000E42D07AEC28F056EC28F033
:104440007FEC28F056EC28F06BD97AEC28F029ECB8
:1044500029F020E2F90EDB50040B1CE07ADA6CEC58
:1044600028F04ED914C0E6FFE66EABEC2BF076ECEC
:1044700028F06FEC2AF056DB060156EC2BF029EC05
:1044800029F008E2F9DB6CEC28F0E4EC26F07FEC94
:1044900028F054DA6CEC28F056EC28F035EC2BF0D0
:1044A00056EC2CF04FEC29F084EC28F06AEC2CF060
:1044B000EF50070802E17BEC29F0010E146E060EA6
:1044C000E15C02E2E16AE552E16E145025D11FD9A8
:1044D000F90EDB5018E0010A3FE1FC0EDB5007E06B
:1044E000010A3AE1B9DAE7EC28F08BDB35D018ECB9
:1044F0002BF002E1FF0EED1802E0D3EC26F0ACDA6F
:104500004BEC32F01AD0FC0EDB5019E0010A24E12A
:10451000D950FA0FC1D9FF0EEE1802E1FF0EED18C7
:1045200006E05FEC29F02BEC30F0E552E5521FEC91
:104530002BF0E7EC28F0FCEC31F012DA0DD08CDA3D
:10454000E7EC28F017EC31F0146E060EE15E145023
:10455000E9EC31F00009FCE0DFD0D9D8120EE126F9
:10456000FC0EDB500FE0010A46E1F80EDBCFE6FF60
:10457000F90EDBCFE6FFA7EC2AF0E7EC28F03EECE3
:1045800028F039D018EC2BF002E1FF0EED1802E014
:10459000D3EC26F0100EF36EDB6E110EDB6AD950F1
:1045A000F80FECEC28F027E04BDB3CDB31D90CE2D8
:1045B000F80EDBCF08F0F90EDBCF09F0100E08C0C3
:1045C000DBFF110E09C0DBFF45EC28F0A7EC2AF059
:1045D000D3DA3EEC28F045EC28F0CEDA81EC2AF074
:1045E0002FDBD950FA0FB2EC29F02ADBD950F80FA3
:1045F00053D9A4D9D4D7120EE15C02E2E16AE552A4
:10460000E16E8AD01E51E9EF29F0E926000EEA2278
:104610001200040EDBCFE9FF050EDBCFEAFF140E1C
:10462000EA02F3CFEAFFE902F3CFE9FFF450EA260A
:10463000C40EE926040EEA221200FD0EDBCFE9FFCC
:10464000FE0EDBCFEAFF1200EECF16F0EFCF17F031
:104650001200FE0EDB50AEEF2AF0EECF14F0EFCFDB
:1046600015F01200C0EC28F0020ED8801456000E8F
:104670001556140E1502F3CF15F01402F3CF14F0F3
:10468000F4501526F3CFE6FF15C0E6FF010EE66EE7
:10469000E76E1CEC29F0E7501626000E1722140EC8
:1046A0001702F3CF17F01602F3CF16F0F4501726C7
:1046B000C40E1626040E172242EC2BF0010EE66EF5
:1046C000040EDBCF18F0050EDBCF19F0140E190223
:1046D000F3CF19F01802F3CF18F0F4501926C40ED6
:1046E0001826040E192218C0E6FF19C0E6FFEFDEF7
:1046F0001A6E080EE15E1A500401FC6BFD6B12008D
:10470000EE50165C146EEE501758156E1200D9CF8D
:10471000E6FFE1CFD9FF1200E552E7CFD9FF120043
:10472000020EDBCF14F0030EDBCF15F0120014C025
:10473000EEFF15C0EDFF1200060E85EC2AF0070E05
:10474000DB501758156E10EC29F066EC29F0F80EC6
:10475000DBCF08F0F90E1DEC2AF011EC2BF0080E5F
:1047600008C0DBFF090E09C0DBFFFC0EDBCF08F041
:10477000FD0E55EC2AF0FC0E1200A9DE146E080E98
:10478000E15E145012000F0EDBCF18F0100EDBCFDD
:1047900019F0110EDBCF1AF0120EDBCF1BF0D1ECAB
:1047A00028F026EC2BF0EE501A58166EEE501B58DF
:1047B000176E04EC29F0DECF07F0DECF08F0DECF75
:1047C00009F0DDCF0AF0DD52DD520A34000E0A187E
:1047D0001200D950100F146EDACF15F00C0EDB500A
:1047E000142447EF2BF01650EE24146E1750EE20D1
:1047F000156E1200FA0EDBCF16F0FB0EDBCF17F0B2
:104800001200FC0EDBCFE6FFFD0EDBCFE6FF120051
:104810001450165C155017581200E96EDACFEAFFF3
:104820001200EECF18F0EECF19F087EC2CF018C084
:10483000E6FF19C0E6FF1AC0E6FF1BC0E6FF8FECDB
:104840005DF0E552E7CF1BF0E552E7CF1AF0E552F5
:10485000E7CF19F0E552E7CF18F000011850065CD9
:10486000146E19500758156E1A500858166E1B50C2
:104870000958176E800E1714120014C0EEFFB5EF22
:104880002AF0E66E3CEC17F0E552E5521200EECF4E
:10489000E6FFEFCFE6FF1200E96EFF0EDA20EA6EC8
:1048A000120042EC2BF099EC5DF063EF2CF0E00E7F
:1048B000146E0D0EDBCFE7FF1450E7260D0EE7CF89
:1048C000DBFF1200080EDBCF08F0090EDBCF09F08A
:1048D000FA0E08C0DBFFFB0E09C0DBFF0F0EDB503A
:1048E000120006C014F0CDEF2AF01450EE26155039
:1048F000ED2212000A0EDBCF08F00B0EDBCF09F021
:10490000FC0E08C0DBFFFD0E09C0DBFFFC0E120031
:10491000EE50185C166EEE501958176E1200F6EC39
:104920002BF0AEEC0FF0E552120066EC29F0040E0D
:104930001200EECF18F0EFCF19F012001450EE5E17
:104940001550ED5A1200EF8A6DEC29F0166A176ABD
:104950001200020EDBCF16F0030EDBCF17F01200B1
:10496000E552E552E552E5521200060EDBCF18F093
:10497000070EDBCF19F0080EDB50185C166E090E1F
:10498000DB501958176E0C0EC3EC2AF0000E1720DE
:10499000156E10EC29F004EF2AF01650145C175035
:1049A00015581200610EF36E0D0EDBCFF4FFF350BD
:1049B000F45C1200DF50060DF3CFF6FFF4CFF7FFE3
:1049C0008A0EF626BD0EF7221200FB0EDBCFE9FFA2
:1049D000FC0EDBCFEAFF1200FB0EDBCFE6FFFC0E86
:1049E000DBCFE6FF1200F6EC2BF04BEC11F0E552BA
:1049F0001200FA0EDBCF14F0FB0EDBCF15F0120025
:104A000074EC29F00A0EC3EC2AF00B0E4CEC2BF0E0
:104A100022511625186E23511721196E12EF2AF014
:104A2000050114500E5D15500F591200F3EC29F0DA
:104A30001A50165C146E1B501758156E12000F0E8C
:104A4000DBCF06F5100EDBCF07F5110EDBCF08F537
:104A5000120EDBCF09F512001FEC2BF05FEF29F0EF
:104A6000DF50AEEF2AF0020E14C0DBFF030E15C0BC
:104A7000DBFF1200260EDBCF14F0270EDBCF15F084
:104A80001200FE0EDBCF1EF61200040E85EC2AF09B
:104A9000050EDB5069EF2AF0EF50E66E6FEC2AF05E
:104AA000010EE66E12000E0EDB50F36E0C0EDBCF25
:104AB000F4FFF350F45C1200130EDBCF0AF5140E72
:104AC000DBCF0BF5150EDBCF0CF5160EDBCF0DF59E
:104AD0000AEF2BF00DEC2AF064DBEE50ED10120023
:104AE0004FDB030E145C000E15581200DBCFE9FFFC
:104AF000DB2AFD0EDBCFEAFF1200DBCFF6FFDB2A5D
:104B0000FD0EDBCFF7FF120005010E51EE5C146EB7
:104B10000F51EE581200260EDBCF08F0270EDBCF28
:104B200009F01200D4DC186E080EE15E1850120075
:104B30000A0EDBCF14F00B0EDBCF15F01200DECF28
:104B400014F0DDCF15F01200F36E030EF3CFDBFF90
:104B50001200200EF36E0E0EF3CFDBFFDBCF14F04E
:104B6000040EDBCF15F0050EBCEF2AF00E0EDB5065
:104B7000146E156AD9501200D9CFE6FFDACFE6FFDE
:104B800012005ADBDE501624146EDD501720EDEFB4
:104B90002BF0D950100F156E0C0EDB50152447EC7E
:104BA0002BF0EFCF14F0610E145C1200D950100FEF
:104BB000176EDACF18F00C0EDB50172447EC2BF0F1
:104BC000EF507A08120006C0EEFFB5EF2AF0F8ECBD
:104BD0002AF0040DF35012001450EE5C1550EE58FC
:104BE0001650EE581750EE58120026EC2BF0166AAD
:104BF000176A1200060EDBCF14F0070EDBCF15F09C
:104C0000120028EC5BF0146E060EE15E14501200E8
:104C1000F6EC2BF0BEEC0FF0E5521200C2DA010EFA
:104C2000EE181200F80EDBCF16F0F90EDBCF17F0FE
:104C300012001850EE24166E1950EE20176E120056
:104C4000100EDBCF14F0110EDBCF15F01200DBCF0E
:104C5000E6FF050EDBCFE6FF1200DBCF15F0166A8C
:104C6000176A1200180EE66E050EE66E1200000EB0
:104C70001522162217221200DECF16F0DDCF17F014
:104C80001200E66E000EDA20E66E120066EC38F0D6
:104C9000E552E5521200F3CF14F0F4CF15F01200F4
:104CA0000E0EDBCF14F0020EDBCF15F0030EBCEFBF
:104CB0002AF0DBCF15F00001145005010A2700018E
:104CC000155005010B23000E0C230D231200F60EC8
:104CD000DBCF08F0F70EDBCF09F0020E08C0DBFFD8
:104CE000030E09C0DBFF12000650165C146E07505D
:104CF0001758156EE8341200065F1550075B165002
:104D0000085B1750095B1200EFEC31F0E76E010E03
:104D1000E7CFDBFFDB501200DBCFDEFFDBCFDDFFB9
:104D20001200EECF0EF5EDCF0FF51200E66E1F511B
:104D300050D300011450050106270001155005014C
:104D40000723000E0823092312006ADAD950120043
:104D5000DB50E76E0E0EE7CFDBFF1200EF50F36E75
:104D60000D0EDB50F35C1200FA0EDB06DBCF14F005
:104D7000FB0E1200010EF36E0F0EF3CFDBFF1200DD
:104D8000FC0EDBCF16F0FD0EDBCF17F042EF2BF061
:104D9000DBCF1BF00A0EDB501A24186E0B0EDB5013
:104DA0001B20196E120013DA1BEC30F0E552E552AD
:104DB0001200020EF3CFDBFF030EF4CFDBFF120075
:104DC000DBCF19F012EF2AF01650EE5C146E17507C
:104DD000EE58156E1200060E14C0DBFF070E15C04C
:104DE000DBFF1200F90EDBCFE6FFFA0EDBCFE6FFAA
:104DF0001200E66EE66AFAEC57F0E552E552120050
:104E0000260EDBCFE6FF270EDBCFE6FF1200260ED5
:104E1000DBCF16F0270EDBCF17F01200240EDBCF0E
:104E2000E6FF250EDBCFE6FF1200050EDBCF15F007
:104E30000001800E151412000A0EDBCF16F00B0EC7
:104E4000DBCF17F0120014C0E6FF15C0E6FF12001A
:104E5000040EDB6A050EDB6A120008000D0EF5CFAA
:104E6000DBFF120014500008000E15541200F3CF9F
:104E7000EEFF15C0EDFF1200DE50165C146EDD5023
:104E80001758EDEF2BF0140EEECFDBFF150EEECF23
:104E9000DBFF160EEECFDBFF1200D880000E0754AA
:104EA000000E0854000E0954000E0A541200EECFF2
:104EB000DEFFEDCFDDFF040EDB68050EDB681200C0
:104EC000E9CF14F0EACF15F0E9CFE6FFEACFE6FF2D
:104ED0001200000EEE5C000EEE58000EEE58000EB2
:104EE000EE581200EE501426EE501522EE50162207
:104EF000EE5017221200FB0E46DBFC0E4CEF2BF09F
:104F00000A0E03DB0B0EDB501758156E1200FC0E59
:104F10003ADBFD0E4CEF2BF0DBCF15F014501510E3
:104F20001200E66AE668E6681200030EDBCFE6FFD1
:104F30003CEC17F0E552E55212000501EE500E5D13
:104F4000146EEE500F59156E1200156E240E14C01B
:104F5000DBFF250E15C0DBFF1200E66E070EE66EC6
:104F60001BEC30F0E552E55212000D0EDB507A08D2
:104F7000120067EC22F0166E080EE15E1650120069
:104F80001A50EE24186E1B50EE20196E1200D950E4
:104F9000FD0FE66EFF0EDA20E66E1200ADEC22F099
:104FA000146E070EE15E1450120028EC5BF0166ED2
:104FB000060EE15E165012001650065C146E175075
:104FC0000758156E1200272BD89002370337043785
:104FD00005371200F90EDBCF08F0FA0EDBCF09F02F
:104FE0001200F4CFDBFF0C0EE66EE66AD950120019
:104FF000146E156A140E145E000E155A1200260E59
:1050000014C5DBFF270E15C5DBFF1200240E08C0F8
:10501000DBFF250E09C0DBFF1200FB0EDBCF08F023
:10502000FC0EDBCF09F012006DEC1BF0F3CF25F581
:10503000F4CF26F512000C0EDBCF16F00D0EDBCFF1
:1050400017F012000A0EDBCF18F00B0EDBCF19F0B1
:105050001200FB0EDBCF16F5FC0EDBCF17F51200AE
:105060000A0EDBCF22F50B0EDBCF23F51200225107
:105070001625146E23511721156E120053EC5BF0A8
:10508000176E070EE15E17501200100EDBCFE6FF21
:10509000110EDBCFE6FF1200010E1626000E1722BE
:1050A0001200F36E190EF3CFDBFF1200DECFEEFF1E
:1050B000DDCFEDFF12000A0EE66EE66A1200050172
:1050C0000E51141812000D0EEFCFDBFF120002EC90
:1050D00023F0170E05EF23F002EC23F0020E05EF8C
:1050E00023F002EC23F0160E05EF23F057DBEF5010
:1050F000E66E120002EC23F00C0E05EF23F002EC3A
:1051000023F00A0E05EF23F002EC23F0060E05EF64
:1051100023F0F4DA24EF23F002EC23F0080E05EF7D
:1051200023F08FEC5DF071EC24F0B40E1426C40E65
:105130001522040E1622000E17229CEF2BF01426C7
:1051400096DDD7EC2CF0120E05EC23F097EF23F050
:105150000E0EDBCFE6FFE66A060120DB9DDCD950B0
:10516000100F8FDDBDEC23F00E0EDB50DE26000E9F
:10517000DD22FCDC040F4FDBD950040FB5EF2BF020
:10518000C1DBDBCF15F012001DEC23F0020E05EFA2
:1051900023F0B4DA99EF24F002EC23F0190E05EFB6
:1051A00023F0D9CFE9FFDACFEAFF12008FEC5DF0F0
:1051B000065005010225146E07500321156E085094
:1051C0000421166E09500521176E9CEF2BF0FD0E81
:1051D000DBCFE6FFF6EF2BF04CEC24F0EE50ED10B9
:1051E00012004FDCF3EC24F0F80EDB50F35C146E8D
:1051F000F90EDB50F458156E36DC28D3E4DAD8907B
:105200001732163208EF24F014C0DFFF010E15C06C
:10521000DBFF020E16C0DBFF030E17C0DBFF120020
:10522000010E1426000E152212000C0EDBCF14F016
:105230000D0E13DDF2EF2BF0040EDBCF16F0050E92
:10524000DBCF17F0120005EC23F024EC23F051EF34
:1052500024F024EC23F0CDEF24F0D9500F0F0DEF04
:1052600024F009EC23F0100E05EF23F02CDB165090
:10527000F324146E1750F420B0DA8CEF23F005EC11
:1052800023F0EECFE6FFEECFE6FF47EC24F086EC0E
:1052900038F0B0EC24F071EC24F01DEF23F002ECB8
:1052A00023F02DEF23F002EC23F080EF23F047EC06
:1052B00024F0010EE66E01EC24F0BDEF23F0FA0EAF
:1052C000DBCFE6FFFB0EDBCFE6FF1200040E14C0BF
:1052D000DBFF050E15C0DBFF120099EC5DF006C088
:1052E00014F007C015F01200FB0EDBCF16F0FC0E19
:1052F000DBCF17F01200010EE66E100E41EF24F026
:105300000DEC24F075EF24F087EC23F029EF23F067
:105310002DEC23F010EF25F0E5EC24F0020E05EC67
:1053200023F0F5DAE5EC24F0C0EF27F01FDC020FE4
:1053300072DA8CD241EC25F06BDC3BDDD950020FE8
:10534000B5EF2BF0020EE8DCDBCF14F0030EDBCF61
:1053500015F0FAEC23F008EF24F087EC23F0060EAA
:10536000E12612004CEC24F075EF24F017DA4CEC37
:1053700025F001EC24F0BDEF23F00EC5E6FF0FC5CC
:10538000E6FFE66A8B0EE66E070EE66EBDEF23F0D3
:105390001426000E15220BDB140E05EC23F097EFFC
:1053A00023F01DEC23F00E0E05EF23F090EC23F01C
:1053B000F60EDBCF16F0F70EDBCF17F008EF24F078
:1053C00060DCA7EC38F0B0EC24F065DC141E151E90
:1053D00012001C0DF3CFE9FFF4CFEAFF600EE926BF
:1053E000000EEA221200EE501C5C1A6EEE501D58A0
:1053F0001B6E120099EC24F002EC23F0F5EF25F07F
:105400002DEC23F05FEF28F014C0F3FF15C0F4FF7C
:10541000120047EC24F0BDEF23F0F3CFDEFFF4CF12
:10542000DDFF12001450185C15501958120080EC62
:1054300023F08BDC060F0BEF2CF0DBCF09F0060E10
:1054400008C0DBFF070E09C0DBFF120034DEECEC06
:1054500024F008DC01EF26F0010EE66E110E41EC9F
:1054600024F0050114511511120075EC24F090EC94
:1054700023F0FAEC23F008EF24F0260E14C0DBFF33
:10548000270E15C0DBFF3AEF25F0EECF14F0EECF7C
:1054900015F024EC23F009EF23F0E66A000EE66E27
:1054A000E66AFCEC31F0B0EF24F0DBCF09F00A0E35
:1054B00008C0DBFF0B0E09C0DBFF120093D9D890A8
:1054C000030EEB50000A120009EC23F00A0E05EF60
:1054D00023F01758156E14C0E6FFE66E1200DECFFB
:1054E000E6FFDDCFE6FF120087EC23F0040EE12695
:1054F0001200E9EC23F0AEEF26F0D950260F0DEFA5
:1055000024F04BEC32F0B0EF24F0DB50165C146E5C
:10551000120002EC23F00E0E05EC23F011EF24F044
:10552000120E05EC23F006C0EEFF15C0EDFF1200D1
:105530008BEC25F0085005010E2709500F231200AF
:105540001DEC23F00C0E05EC23F0E7EF25F0F9EC51
:1055500024F0166A78DC16C0E6FF1200146E156A95
:10556000050E145C000E1558120015C0EEFF16C093
:10557000EEFF17C0EEFF1200DBCF16F01450155CE3
:10558000000E16581200DB501624146E1200270E5F
:10559000145E000E155A23EF27F007C015F008C05F
:1055A00016F009C017F0120099EC24F01850145CA2
:1055B00019501558120080EC23F095EC24F027EFD9
:1055C00026F087EC23F0300EE12629EF23F0E00EE1
:1055D000166EE9EC23F01650EF26120093D92DEF4A
:1055E00026F03AEC25F01450255D1550265912008E
:1055F000EF50F00BE842E842E842E8421200D9508E
:10560000170FB5EF2BF0FB0EDBCF14F0FC0EDBCF4A
:1056100015F0120005010A2B000E0B230C230D239D
:105620001200FA0EDBCF08F0FB0EDBCF09F0120000
:10563000D950FD0F4CEC24F0FF0EEE181200F70EBF
:10564000DBCFE6FFF80EDBCFE6FF1200EE50185C72
:10565000146EEE501958156E120005EC23F0E3EFAE
:1056600025F0E66EE66ABCEF25F002EC23F091EF40
:1056700026F024EC23F0165014181200ECEC24F061
:1056800091EF27F016C0E6FF17C0E6FF1200E96EA3
:10569000000EDA20EA6E1200DB501720156E1200A1
:1056A00016DDEE521200060171EF28F028DD2DEC18
:1056B00023F07AEF28F05BD924EC23F053EF29F0A4
:1056C000F80EDB501824166EF90EDB501920176EF9
:1056D000165005019DEF2CF053DDD950FC0F42DE32
:1056E0004FDD8BD90601A6EF2CF0F1DCEF50120054
:1056F00047EC24F046EC26F04BEF26F002EC23F0CA
:10570000040E05EF23F045DDE7DC88EC24F0F7DC40
:105710006FD9F0DC16EF25F006018CEF28F039D9AF
:10572000EBEC26F0FAEC25F0ABEF2CF0D5DC2DEC11
:1057300023F0E0DC97EF23F03AD90E0E05EC23F0CE
:105740003DEF24F001EC24F0D1DC84EF28F0E1DC23
:10575000C3DC80EF23F0CADCBFDC47EF24F0B7DC0A
:10576000A3EC24F0040E9FEF28F00DEC24F0EE5093
:10577000ED101200BFDC24EC23F0C1DC80EC23F040
:105780001406000E155A1200B1DC1CEC27F0B7DC31
:10579000F3EC23F014C0E6FFE66E120002EC23F0F7
:1057A0001B0E05EF23F006D900EF2AF056DD0501A8
:1057B0000651EE1812003CEC26F0A6DCF3EC23F0C8
:1057C0008BDCD4EF2AF099EC24F002EC23F088EF84
:1057D00024F08CDC8FDC57EF29F0156E14C0F3FF3A
:1057E000F46E1200D950060F0DEF24F0FE0EDBCF41
:1057F000E6FF120071DC24EC23F086DCDBEF2AF0FC
:10580000F7D86ADCF3EF29F0B2D8FAEF29F0D950D3
:10581000FC0FECEF28F00DEC24F09EEF24F09FEC51
:1058200025F0C8D835EF2AF052DCA3EC24F0180E8E
:105830009FEF28F0060E8CEC26F06BDC9CEF23F03B
:1058400002EC23F0140EFFDC74EF26F090EC23F052
:10585000FAEC23F0CDEF24F002EC23F0F3EC23F08C
:1058600010EF29F0EE2AED22EECF14F0EDCF15F077
:10587000120073DD28EC27F029EF23F090EC23F0E1
:105880002BDCFEEF28F0C9DDA9EC24F03CEF27F07B
:10589000F3EC23F07EDC12EF2AF03BDC1DDC17EF8B
:1058A0002AF084EC0DF070DC2DEF23F0F8DC34DC12
:1058B00097EF23F01BDC23DC09EF2AF01BDC2DEC37
:1058C00023F0A9EF24F0E552E7CF17F0E552E7CF38
:1058D00016F0120097EC23F071EF28F0D950FA0F70
:1058E000ECEF28F0BEDCEE50ED101200D950040FA2
:1058F00080EF29F037EC27F01DEF23F0AEDCEE50FF
:1059000005011200040EDBCF14F0050E1200EECFDD
:105910001AF0EFCF1BF01200060150EF2BF0C3DEA0
:10592000EF50120067EC28F0EF9A67EC28F0EF9C3C
:1059300067EC28F0EF9E50EF2BF01219146E175001
:105940001319156E060128DC97EF23F0A8DC84EC10
:1059500028F097EF23F089EC28F008EF24F0C4DC5E
:1059600045EC25F091EC27F00601ABEF2BF006019A
:105970006CEF28F0060175EF2BF041EC25F00601E5
:1059800056EF2BF0C9DE88EF29F071EC28F0EF50CC
:10599000120012EC26F006017AEC28F0F3EF23F067
:1059A0008ADE145005010E5F15500F5B12000601D0
:1059B00002EF23F0060184EF28F0010EE66EC2DE4E
:1059C00009EF2AF0BFDE47EC24F0CEEF27F0EF928C
:1059D00067DEEF9450EF2BF005EC23F089DE1DEF2E
:1059E00023F067EC28F0F80EEF140009EF6E1200B8
:1059F000EECF1CF0EFCF1DF01200D1EC28F09EEF9F
:0E5A000024F08ADE91EF26F0060176EF28F002
:025A0E0063EC47
:105A100033F0E652898A929A9496949A9488898867
:105A200092989E96200EC66EC78CC79E81EC32F06F
:105A30001D0EC6EC34F0080EDF14F8E1DF1C010B7C
:105A4000F5E10601010E0A6F066B076BE66A080EA8
:105A500059EC33F0E66A090E59EC33F0530EE66E5A
:105A60000C0EC9EC34F00D0E59EC33F0530EE66E0B
:105A70000A0EC9EC34F00B0E59EC33F0540EE66EFE
:105A8000040EC9EC34F0050E59EC33F0540E8DECD5
:105A900034F0E66A41EC32F0E552E66A020EE66E58
:105AA0007DEC33F00D0EE66E78EC33F0320EE66EE0
:105AB000020E59EC33F0120EE66E040E59EC33F080
:105AC000400EE66E030E59EC33F03F0EE66E090E03
:105AD00059EC33F0120EE66E060E59EC33F00C0E54
:105AE000E66E070E59EC33F0EE0EE66E0A0E59EC38
:105AF00033F0050EE66E0B0E59EC33F0040E64EC39
:105B000034F062C5E6FF040E59EC33F063C5E6FFDE
:105B1000050E59EC33F064C5E6FF020E59EC33F084
:105B200065C5E6FF030E59EC33F066C5E6FF78EC79
:105B300033F067C5E6FF010E59EC33F0E66A150E47
:105B400059EC33F0120E5EEC33F0E8CF0BF6E66A58
:105B5000010EE66E100EE66E17EC33F0E552E552DC
:105B6000E552720EE66E340EE66E140EE66EE9EC49
:105B700033F0E66AE9EC33F07DEC33F0F1EC33F02E
:105B8000E55268EF33F0010EE66ED9EC32F0E552E3
:105B9000F350040B01E0010E120020EC34F0080B6E
:105BA000080A01E0010E1200D7EC34F006010A5198
:105BB00023E1010E0A6F06C614F007C615F014069D
:105BC000000E155A14C0DEFF15C0DDFFDBEC34F00B
:105BD0006CEC33F004E2530EDE6E070EDD6E400E09
:105BE00015EC34F0DFCFE6FF0C0E59EC33F033EC5C
:105BF00034F00D0E59EC33F0020EE15C02E2E16A82
:105C0000E552E16E68EF33F063EC33F0040EE12609
:105C1000B4EC34F0190EC6EC34F00E0E6BEC34F02C
:105C20000E0E5EEC33F018EC34F00F0E7CEC34F01A
:105C3000B4EC34F0190E5EEC33F0DF500001145C6C
:105C4000E9E10C0E6BEC34F00C0EC6EC34F00D0EEA
:105C5000CDEC34F0D7EC33F0DECF16F0DDCF17F01B
:105C60001450165C1550175821E2530E186E070E8B
:105C7000196E1A6A1B6A020EDBCF20F0030EDBCF0F
:105C800021F0DE50205C1C6EDD5021581D6E1E6A16
:105C90001F6A1C50185C146E1D501958156E1E504A
:105CA0001A58166E1F501B58176E1DD0D7EC33F0C4
:105CB000DF50141809E1DE52DD50151805E1530ECE
:105CC000F36E070EF46E13D0DECF16F0DDCF17F0B3
:105CD000020EDB50165C146E030EDB501758156E67
:105CE0001406000E155A14C0F3FF15C0F4FF040E7D
:105CF000E15C02E2E16AE552E16E68EF33F0D9CF90
:105D0000E6FFE1CFD9FF150EE126190EE66E010E72
:105D1000E66E2BEC33F0E552E552190EE66EC3EC5D
:105D200032F0E552146E140E14C0DBFF000EE66E66
:105D3000E66A2BEC33F0E552E552140EDB5002E13B
:105D4000000EB7D006010A5103E12EDF000EB1D0DC
:105D500006C608F607C609F608C6E6FFE66AFCECC2
:105D600032F0E552E55209C6E6FF010EE66EFCECA4
:105D700032F0E552E552140EE66EE66AD9CFE6FF40
:105D8000DACFE6FF39DBE552E552E552E552120E75
:105D9000DBCFE6FF130EDBCFE6FF66EC38F0E55213
:105DA000E552120EF3CFDBFF130EF4CFDBFFDECF95
:105DB00014F0DDCF15F0166A176AD880530E14540C
:105DC000070E1554000E1654000E175431E3D9CFA8
:105DD000E9FFDACFEAFFEF50010B2AE1D950020FB9
:105DE000E96EDACFEAFFEE52EE52EE52EF50800B40
:105DF0001FE1D950020FE96EDACFEAFFEE52EE5200
:105E0000EF50100B15E1D950020FE96EDACFEAFF1F
:105E1000EE0ED880EE54050EED540AE3D950020F71
:105E2000E96EDACFEAFFEE52EE52EF50800B01E15D
:105E3000FF00DECF06F6DDCF07F6060EE66EE66A59
:105E4000D9500C0FE66E000EDA20E66EFD0EDBCFA9
:105E5000E9FFFE0EDBCFEAFFE9CF14F0EACF15F041
:105E600014C0E6FF15C0E6FF28EC5BF0166E060EC8
:105E7000E15E1650FB0EDBCFE9FFFC0EDBCFEAFF45
:105E8000EF68130EDB50080810E1120EDB5004E03F
:105E9000120EDB50060809E1FB0EDBCFE9FFFC0E1A
:105EA000DBCFEAFF120EDBCFEFFF06010A6B010E1C
:105EB00000D0146E150EE15C02E2E16AE552E16E7B
:105EC0001450E552E7CFD9FF120063EC33F0550EC2
:105ED0008DEC34F0D950FA0F8EEC33F0620EEE26D2
:105EE000070EED22FA0EDBCFE6FF060E59EC33F07B
:105EF000FB0EDBCFE6FF070EDCDB060EE66EE66A86
:105F00001CEC34F0E5EC33F026EC34F0060EE66ED3
:105F1000E66A620EE66E050EE66E26EC34F0080EBA
:105F2000E66EAFDAE552FC0EDB5002E1000E01D066
:105F3000060EE66EA6DAE552CBD3C5DB0E0EE126E1
:105F400081EC33F0050E06010B5D03E0060E0B5DE0
:105F50005BE1DE6ADD6AB8EC34F010E1D9CFE9FF2D
:105F6000DACFEAFFEE2A000EED22EECF15F0EDCFEC
:105F700016F0E80E155C030E1658EDE31C0EB1EC9E
:105F800034F0E850020B09E1DECF15F0DDCF16F05A
:105F9000E80E155C030E165837E3F5EC33F0E4EC2D
:105FA00034F0060E8BDB040E14C0DBFF070E86DB1D
:105FB000050E14C0DBFF040EDB2A050E01E3DB2A0D
:105FC00041EC34F0DB6A100EF36E0D0EDBCFF4FF04
:105FD000F350F45C17E21C0EB1EC34F0E850020B05
:105FE00011E0DADBEE52EE52EE52EF50200B0AE0F7
:105FF00088DBB8EC34F0FDE0F5EC33F041EC34F044
:10600000DB2AE1D76FEC34F00E0EE15C02E2E16ACC
:10601000E552E16E5DD357DB020E4EEC34F002E246
:10602000F8EC33F03BEC34F0020EE15C02E2E16AA2
:10603000E552E16E4DD3D7EC34F0C6EC34F0030EEC
:10604000CDEC34F093EC34F0BEEC34F002E2E16AD3
:10605000E552E16E3DD3D7EC34F05FEC34F01CEC4C
:1060600034F046DBB2DB010EBEEC34F002E2E16A52
:10607000E552E16E2DD327DB040E4EEC34F001E245
:10608000B7DBE4EC34F03BEC34F0FB0EDBCFE6FFA7
:10609000FC0EDBCFE6FF10D8E552E552F3CFDEFF72
:1060A000F4CFDDFF6FEC34F03EDB040EE15C02E286
:1060B000E16AE552E16E0CD306DB1E0EE126020E0C
:1060C000DB6A030EDB6A040EDB6A050EDB6A5FEC3B
:1060D00034F0F2EC34F075E067EC34F0140ED88054
